{
  "address": "0xe79318b5C9777d57a6ceB813c080177dAf033828",
  "abi": [
    {
      "inputs": [
        {
          "internalType": "address",
          "name": "vrfCoordinatorV2",
          "type": "address"
        },
        {
          "internalType": "uint64",
          "name": "subscriptionId",
          "type": "uint64"
        },
        {
          "internalType": "bytes32",
          "name": "gasLane",
          "type": "bytes32"
        },
        {
          "internalType": "uint256",
          "name": "mintFee",
          "type": "uint256"
        },
        {
          "internalType": "uint32",
          "name": "callbackGasLimit",
          "type": "uint32"
        },
        {
          "internalType": "string[3]",
          "name": "dogTokenUris",
          "type": "string[3]"
        }
      ],
      "stateMutability": "nonpayable",
      "type": "constructor"
    },
    {
      "inputs": [
        {
          "internalType": "address",
          "name": "have",
          "type": "address"
        },
        {
          "internalType": "address",
          "name": "want",
          "type": "address"
        }
      ],
      "name": "OnlyCoordinatorCanFulfill",
      "type": "error"
    },
    {
      "inputs": [],
      "name": "RandomIpfsNft__AlreadyInitialized",
      "type": "error"
    },
    {
      "inputs": [],
      "name": "RandomIpfsNft__NeedMoreETHSent",
      "type": "error"
    },
    {
      "inputs": [],
      "name": "RandomIpfsNft__RanceOutOfBounds",
      "type": "error"
    },
    {
      "inputs": [],
      "name": "RandomIpfsNft__TransferFailed",
      "type": "error"
    },
    {
      "anonymous": false,
      "inputs": [
        {
          "indexed": true,
          "internalType": "address",
          "name": "owner",
          "type": "address"
        },
        {
          "indexed": true,
          "internalType": "address",
          "name": "approved",
          "type": "address"
        },
        {
          "indexed": true,
          "internalType": "uint256",
          "name": "tokenId",
          "type": "uint256"
        }
      ],
      "name": "Approval",
      "type": "event"
    },
    {
      "anonymous": false,
      "inputs": [
        {
          "indexed": true,
          "internalType": "address",
          "name": "owner",
          "type": "address"
        },
        {
          "indexed": true,
          "internalType": "address",
          "name": "operator",
          "type": "address"
        },
        {
          "indexed": false,
          "internalType": "bool",
          "name": "approved",
          "type": "bool"
        }
      ],
      "name": "ApprovalForAll",
      "type": "event"
    },
    {
      "anonymous": false,
      "inputs": [
        {
          "indexed": false,
          "internalType": "enum RandomIpfsNft.Breed",
          "name": "dogBreed",
          "type": "uint8"
        },
        {
          "indexed": false,
          "internalType": "address",
          "name": "minter",
          "type": "address"
        }
      ],
      "name": "NftMinted",
      "type": "event"
    },
    {
      "anonymous": false,
      "inputs": [
        {
          "indexed": true,
          "internalType": "uint256",
          "name": "requestId",
          "type": "uint256"
        },
        {
          "indexed": false,
          "internalType": "address",
          "name": "requester",
          "type": "address"
        }
      ],
      "name": "NftRequested",
      "type": "event"
    },
    {
      "anonymous": false,
      "inputs": [
        {
          "indexed": true,
          "internalType": "address",
          "name": "previousOwner",
          "type": "address"
        },
        {
          "indexed": true,
          "internalType": "address",
          "name": "newOwner",
          "type": "address"
        }
      ],
      "name": "OwnershipTransferred",
      "type": "event"
    },
    {
      "anonymous": false,
      "inputs": [
        {
          "indexed": true,
          "internalType": "address",
          "name": "from",
          "type": "address"
        },
        {
          "indexed": true,
          "internalType": "address",
          "name": "to",
          "type": "address"
        },
        {
          "indexed": true,
          "internalType": "uint256",
          "name": "tokenId",
          "type": "uint256"
        }
      ],
      "name": "Transfer",
      "type": "event"
    },
    {
      "inputs": [
        {
          "internalType": "address",
          "name": "to",
          "type": "address"
        },
        {
          "internalType": "uint256",
          "name": "tokenId",
          "type": "uint256"
        }
      ],
      "name": "approve",
      "outputs": [],
      "stateMutability": "nonpayable",
      "type": "function"
    },
    {
      "inputs": [
        {
          "internalType": "address",
          "name": "owner",
          "type": "address"
        }
      ],
      "name": "balanceOf",
      "outputs": [
        {
          "internalType": "uint256",
          "name": "",
          "type": "uint256"
        }
      ],
      "stateMutability": "view",
      "type": "function"
    },
    {
      "inputs": [
        {
          "internalType": "uint256",
          "name": "tokenId",
          "type": "uint256"
        }
      ],
      "name": "getApproved",
      "outputs": [
        {
          "internalType": "address",
          "name": "",
          "type": "address"
        }
      ],
      "stateMutability": "view",
      "type": "function"
    },
    {
      "inputs": [
        {
          "internalType": "uint256",
          "name": "moddedRng",
          "type": "uint256"
        }
      ],
      "name": "getBreedFromModdedRng",
      "outputs": [
        {
          "internalType": "enum RandomIpfsNft.Breed",
          "name": "",
          "type": "uint8"
        }
      ],
      "stateMutability": "pure",
      "type": "function"
    },
    {
      "inputs": [],
      "name": "getChanceArray",
      "outputs": [
        {
          "internalType": "uint256[3]",
          "name": "",
          "type": "uint256[3]"
        }
      ],
      "stateMutability": "pure",
      "type": "function"
    },
    {
      "inputs": [
        {
          "internalType": "uint256",
          "name": "index",
          "type": "uint256"
        }
      ],
      "name": "getDogTokenUris",
      "outputs": [
        {
          "internalType": "string",
          "name": "",
          "type": "string"
        }
      ],
      "stateMutability": "view",
      "type": "function"
    },
    {
      "inputs": [],
      "name": "getInitialized",
      "outputs": [
        {
          "internalType": "bool",
          "name": "",
          "type": "bool"
        }
      ],
      "stateMutability": "view",
      "type": "function"
    },
    {
      "inputs": [],
      "name": "getMintFee",
      "outputs": [
        {
          "internalType": "uint256",
          "name": "",
          "type": "uint256"
        }
      ],
      "stateMutability": "view",
      "type": "function"
    },
    {
      "inputs": [],
      "name": "getTokenCounter",
      "outputs": [
        {
          "internalType": "uint256",
          "name": "",
          "type": "uint256"
        }
      ],
      "stateMutability": "view",
      "type": "function"
    },
    {
      "inputs": [
        {
          "internalType": "address",
          "name": "owner",
          "type": "address"
        },
        {
          "internalType": "address",
          "name": "operator",
          "type": "address"
        }
      ],
      "name": "isApprovedForAll",
      "outputs": [
        {
          "internalType": "bool",
          "name": "",
          "type": "bool"
        }
      ],
      "stateMutability": "view",
      "type": "function"
    },
    {
      "inputs": [],
      "name": "name",
      "outputs": [
        {
          "internalType": "string",
          "name": "",
          "type": "string"
        }
      ],
      "stateMutability": "view",
      "type": "function"
    },
    {
      "inputs": [],
      "name": "owner",
      "outputs": [
        {
          "internalType": "address",
          "name": "",
          "type": "address"
        }
      ],
      "stateMutability": "view",
      "type": "function"
    },
    {
      "inputs": [
        {
          "internalType": "uint256",
          "name": "tokenId",
          "type": "uint256"
        }
      ],
      "name": "ownerOf",
      "outputs": [
        {
          "internalType": "address",
          "name": "",
          "type": "address"
        }
      ],
      "stateMutability": "view",
      "type": "function"
    },
    {
      "inputs": [
        {
          "internalType": "uint256",
          "name": "requestId",
          "type": "uint256"
        },
        {
          "internalType": "uint256[]",
          "name": "randomWords",
          "type": "uint256[]"
        }
      ],
      "name": "rawFulfillRandomWords",
      "outputs": [],
      "stateMutability": "nonpayable",
      "type": "function"
    },
    {
      "inputs": [],
      "name": "renounceOwnership",
      "outputs": [],
      "stateMutability": "nonpayable",
      "type": "function"
    },
    {
      "inputs": [],
      "name": "requestNft",
      "outputs": [
        {
          "internalType": "uint256",
          "name": "requestId",
          "type": "uint256"
        }
      ],
      "stateMutability": "payable",
      "type": "function"
    },
    {
      "inputs": [
        {
          "internalType": "uint256",
          "name": "",
          "type": "uint256"
        }
      ],
      "name": "s_requestIdToSender",
      "outputs": [
        {
          "internalType": "address",
          "name": "",
          "type": "address"
        }
      ],
      "stateMutability": "view",
      "type": "function"
    },
    {
      "inputs": [
        {
          "internalType": "address",
          "name": "from",
          "type": "address"
        },
        {
          "internalType": "address",
          "name": "to",
          "type": "address"
        },
        {
          "internalType": "uint256",
          "name": "tokenId",
          "type": "uint256"
        }
      ],
      "name": "safeTransferFrom",
      "outputs": [],
      "stateMutability": "nonpayable",
      "type": "function"
    },
    {
      "inputs": [
        {
          "internalType": "address",
          "name": "from",
          "type": "address"
        },
        {
          "internalType": "address",
          "name": "to",
          "type": "address"
        },
        {
          "internalType": "uint256",
          "name": "tokenId",
          "type": "uint256"
        },
        {
          "internalType": "bytes",
          "name": "data",
          "type": "bytes"
        }
      ],
      "name": "safeTransferFrom",
      "outputs": [],
      "stateMutability": "nonpayable",
      "type": "function"
    },
    {
      "inputs": [
        {
          "internalType": "address",
          "name": "operator",
          "type": "address"
        },
        {
          "internalType": "bool",
          "name": "approved",
          "type": "bool"
        }
      ],
      "name": "setApprovalForAll",
      "outputs": [],
      "stateMutability": "nonpayable",
      "type": "function"
    },
    {
      "inputs": [
        {
          "internalType": "bytes4",
          "name": "interfaceId",
          "type": "bytes4"
        }
      ],
      "name": "supportsInterface",
      "outputs": [
        {
          "internalType": "bool",
          "name": "",
          "type": "bool"
        }
      ],
      "stateMutability": "view",
      "type": "function"
    },
    {
      "inputs": [],
      "name": "symbol",
      "outputs": [
        {
          "internalType": "string",
          "name": "",
          "type": "string"
        }
      ],
      "stateMutability": "view",
      "type": "function"
    },
    {
      "inputs": [
        {
          "internalType": "uint256",
          "name": "tokenId",
          "type": "uint256"
        }
      ],
      "name": "tokenURI",
      "outputs": [
        {
          "internalType": "string",
          "name": "",
          "type": "string"
        }
      ],
      "stateMutability": "view",
      "type": "function"
    },
    {
      "inputs": [
        {
          "internalType": "address",
          "name": "from",
          "type": "address"
        },
        {
          "internalType": "address",
          "name": "to",
          "type": "address"
        },
        {
          "internalType": "uint256",
          "name": "tokenId",
          "type": "uint256"
        }
      ],
      "name": "transferFrom",
      "outputs": [],
      "stateMutability": "nonpayable",
      "type": "function"
    },
    {
      "inputs": [
        {
          "internalType": "address",
          "name": "newOwner",
          "type": "address"
        }
      ],
      "name": "transferOwnership",
      "outputs": [],
      "stateMutability": "nonpayable",
      "type": "function"
    },
    {
      "inputs": [],
      "name": "withdraw",
      "outputs": [],
      "stateMutability": "nonpayable",
      "type": "function"
    }
  ],
  "transactionHash": "0x5234d945928ebab9322c7999b4b05fcee6d7f38f7fc9d0b52c85c8d56cd204a1",
  "args": [
    "0x2Ca8E0C643bDe4C2E08ab1fA0da3401AdAD7734D",
    "939",
    "0x79d3d8832d904592c0bf9818b621522c988bb8b0c05cdc3b15aea1b6e8db0c15",
    "10000000000000000",
    "500000",
    [
      "ipfs://QmU8Pt7PiqPhrrpAdTNNcPVBgM1fgZt1j51YREgYA5rtcy",
      "ipfs://QmaPBk6yGe3sWfHSgqKvX6FGnzmv8wABP9zYR5YdBE5ybo",
      "ipfs://QmRVTno14ZcYCTv1WRc7cMWnBBzfu55s1SzpMKjWDskY8L"
    ]
  ],
  "numDeployments": 4,
  "solcInputHash": "4ec23aeca71f3e2c81c6f67d373f81ae",
  "bytecode": "0x6101406040523480156200001257600080fd5b506040516200439e3803806200439e833981810160405281019062000038919062000882565b6040518060400160405280600f81526020017f52616e646f6d2049504653204e465400000000000000000000000000000000008152506040518060400160405280600381526020017f52494e0000000000000000000000000000000000000000000000000000000000815250878073ffffffffffffffffffffffffffffffffffffffff1660808173ffffffffffffffffffffffffffffffffffffffff1660601b81525050508160009080519060200190620000f592919062000315565b5080600190805190602001906200010e92919062000315565b5050506200013162000125620001cd60201b60201c565b620001d560201b60201c565b8573ffffffffffffffffffffffffffffffffffffffff1660a08173ffffffffffffffffffffffffffffffffffffffff1660601b815250508467ffffffffffffffff1660c08167ffffffffffffffff1660c01b815250508360e081815250508163ffffffff166101008163ffffffff1660e01b81525050826101208181525050620001c1816200029b60201b60201c565b505050505050620009a2565b600033905090565b6000600760009054906101000a900473ffffffffffffffffffffffffffffffffffffffff16905081600760006101000a81548173ffffffffffffffffffffffffffffffffffffffff021916908373ffffffffffffffffffffffffffffffffffffffff1602179055508173ffffffffffffffffffffffffffffffffffffffff168173ffffffffffffffffffffffffffffffffffffffff167f8be0079c531659141344cd1fd0a4f28419497f9722a3daafe3b4186f6b6457e060405160405180910390a35050565b600b60009054906101000a900460ff1615620002e3576040517fddf8bf7000000000000000000000000000000000000000000000000000000000815260040160405180910390fd5b80600a906003620002f6929190620003a6565b506001600b60006101000a81548160ff02191690831515021790555050565b82805462000323906200096c565b90600052602060002090601f01602090048101928262000347576000855562000393565b82601f106200036257805160ff191683800117855562000393565b8280016001018555821562000393579182015b828111156200039257825182559160200191906001019062000375565b5b509050620003a291906200040d565b5090565b828054828255906000526020600020908101928215620003fa579160200282015b82811115620003f9578251829080519060200190620003e892919062000315565b5091602001919060010190620003c7565b5b5090506200040991906200042c565b5090565b5b80821115620004285760008160009055506001016200040e565b5090565b5b8082111562000450576000818162000446919062000454565b506001016200042d565b5090565b50805462000462906200096c565b6000825580601f1062000476575062000497565b601f0160209004906000526020600020908101906200049691906200040d565b5b50565b6000604051905090565b600080fd5b600080fd5b600073ffffffffffffffffffffffffffffffffffffffff82169050919050565b6000620004db82620004ae565b9050919050565b620004ed81620004ce565b8114620004f957600080fd5b50565b6000815190506200050d81620004e2565b92915050565b600067ffffffffffffffff82169050919050565b620005328162000513565b81146200053e57600080fd5b50565b600081519050620005528162000527565b92915050565b6000819050919050565b6200056d8162000558565b81146200057957600080fd5b50565b6000815190506200058d8162000562565b92915050565b6000819050919050565b620005a88162000593565b8114620005b457600080fd5b50565b600081519050620005c8816200059d565b92915050565b600063ffffffff82169050919050565b620005e981620005ce565b8114620005f557600080fd5b50565b6000815190506200060981620005de565b92915050565b600080fd5b6000601f19601f8301169050919050565b7f4e487b7100000000000000000000000000000000000000000000000000000000600052604160045260246000fd5b6200065f8262000614565b810181811067ffffffffffffffff8211171562000681576200068062000625565b5b80604052505050565b6000620006966200049a565b9050620006a4828262000654565b919050565b600067ffffffffffffffff821115620006c757620006c662000625565b5b602082029050919050565b600080fd5b600080fd5b600067ffffffffffffffff821115620006fa57620006f962000625565b5b620007058262000614565b9050602081019050919050565b60005b838110156200073257808201518184015260208101905062000715565b8381111562000742576000848401525b50505050565b60006200075f6200075984620006dc565b6200068a565b9050828152602081018484840111156200077e576200077d620006d7565b5b6200078b84828562000712565b509392505050565b600082601f830112620007ab57620007aa6200060f565b5b8151620007bd84826020860162000748565b91505092915050565b6000620007dd620007d784620006a9565b6200068a565b90508060208402830185811115620007fa57620007f9620006d2565b5b835b818110156200084857805167ffffffffffffffff8111156200082357620008226200060f565b5b80860162000832898262000793565b85526020850194505050602081019050620007fc565b5050509392505050565b600082601f8301126200086a57620008696200060f565b5b600362000879848285620007c6565b91505092915050565b60008060008060008060c08789031215620008a257620008a1620004a4565b5b6000620008b289828a01620004fc565b9650506020620008c589828a0162000541565b9550506040620008d889828a016200057c565b9450506060620008eb89828a01620005b7565b9350506080620008fe89828a01620005f8565b92505060a087015167ffffffffffffffff811115620009225762000921620004a9565b5b6200093089828a0162000852565b9150509295509295509295565b7f4e487b7100000000000000000000000000000000000000000000000000000000600052602260045260246000fd5b600060028204905060018216806200098557607f821691505b602082108114156200099c576200099b6200093d565b5b50919050565b60805160601c60a05160601c60c05160c01c60e0516101005160e01c6101205161399262000a0c60003960008181610d700152610f7f01526000611059015260006110150152600061103601526000610fd9015260008181610917015261096b01526139926000f3fe6080604052600436106101815760003560e01c8063715018a6116100d1578063a51cccf31161008a578063c87b56dd11610064578063c87b56dd14610575578063e985e9c5146105b2578063ee89dab4146105ef578063f2fde38b1461061a57610181565b8063a51cccf3146104f1578063aa1524911461052e578063b88d4fde1461054c57610181565b8063715018a6146103f35780637a5caab31461040a5780638da5cb5b1461043557806395d89b4114610460578063a22cb4651461048b578063a36f573b146104b457610181565b80633af259751161013e5780635dacf5f4116101185780635dacf5f4146103235780636352211e1461034e5780636e02007d1461038b57806370a08231146103b657610181565b80633af25975146102a65780633ccfd60b146102e357806342842e0e146102fa57610181565b806301ffc9a71461018657806306fdde03146101c3578063081812fc146101ee578063095ea7b31461022b5780631fe543e31461025457806323b872dd1461027d575b600080fd5b34801561019257600080fd5b506101ad60048036038101906101a89190612540565b610643565b6040516101ba9190612588565b60405180910390f35b3480156101cf57600080fd5b506101d8610725565b6040516101e5919061263c565b60405180910390f35b3480156101fa57600080fd5b5061021560048036038101906102109190612694565b6107b7565b6040516102229190612702565b60405180910390f35b34801561023757600080fd5b50610252600480360381019061024d9190612749565b6107fd565b005b34801561026057600080fd5b5061027b600480360381019061027691906128d1565b610915565b005b34801561028957600080fd5b506102a4600480360381019061029f919061292d565b6109d5565b005b3480156102b257600080fd5b506102cd60048036038101906102c89190612694565b610a35565b6040516102da919061263c565b60405180910390f35b3480156102ef57600080fd5b506102f8610ae5565b005b34801561030657600080fd5b50610321600480360381019061031c919061292d565b610b99565b005b34801561032f57600080fd5b50610338610bb9565b6040516103459190612a2b565b60405180910390f35b34801561035a57600080fd5b5061037560048036038101906103709190612694565b610be4565b6040516103829190612702565b60405180910390f35b34801561039757600080fd5b506103a0610c96565b6040516103ad9190612a55565b60405180910390f35b3480156103c257600080fd5b506103dd60048036038101906103d89190612a70565b610ca0565b6040516103ea9190612a55565b60405180910390f35b3480156103ff57600080fd5b50610408610d58565b005b34801561041657600080fd5b5061041f610d6c565b60405161042c9190612a55565b60405180910390f35b34801561044157600080fd5b5061044a610d94565b6040516104579190612702565b60405180910390f35b34801561046c57600080fd5b50610475610dbe565b604051610482919061263c565b60405180910390f35b34801561049757600080fd5b506104b260048036038101906104ad9190612ac9565b610e50565b005b3480156104c057600080fd5b506104db60048036038101906104d69190612694565b610e66565b6040516104e89190612702565b60405180910390f35b3480156104fd57600080fd5b5061051860048036038101906105139190612694565b610e99565b6040516105259190612b80565b60405180910390f35b610536610f7b565b6040516105439190612a55565b60405180910390f35b34801561055857600080fd5b50610573600480360381019061056e9190612c50565b61117b565b005b34801561058157600080fd5b5061059c60048036038101906105979190612694565b6111dd565b6040516105a9919061263c565b60405180910390f35b3480156105be57600080fd5b506105d960048036038101906105d49190612cd3565b6112f0565b6040516105e69190612588565b60405180910390f35b3480156105fb57600080fd5b50610604611384565b6040516106119190612588565b60405180910390f35b34801561062657600080fd5b50610641600480360381019061063c9190612a70565b61139b565b005b60007f80ac58cd000000000000000000000000000000000000000000000000000000007bffffffffffffffffffffffffffffffffffffffffffffffffffffffff1916827bffffffffffffffffffffffffffffffffffffffffffffffffffffffff1916148061070e57507f5b5e139f000000000000000000000000000000000000000000000000000000007bffffffffffffffffffffffffffffffffffffffffffffffffffffffff1916827bffffffffffffffffffffffffffffffffffffffffffffffffffffffff1916145b8061071e575061071d8261141f565b5b9050919050565b60606000805461073490612d42565b80601f016020809104026020016040519081016040528092919081815260200182805461076090612d42565b80156107ad5780601f10610782576101008083540402835291602001916107ad565b820191906000526020600020905b81548152906001019060200180831161079057829003601f168201915b5050505050905090565b60006107c282611489565b6004600083815260200190815260200160002060009054906101000a900473ffffffffffffffffffffffffffffffffffffffff169050919050565b600061080882610be4565b90508073ffffffffffffffffffffffffffffffffffffffff168373ffffffffffffffffffffffffffffffffffffffff161415610879576040517f08c379a000000000000000000000000000000000000000000000000000000000815260040161087090612de6565b60405180910390fd5b8073ffffffffffffffffffffffffffffffffffffffff166108986114d4565b73ffffffffffffffffffffffffffffffffffffffff1614806108c757506108c6816108c16114d4565b6112f0565b5b610906576040517f08c379a00000000000000000000000000000000000000000000000000000000081526004016108fd90612e78565b60405180910390fd5b61091083836114dc565b505050565b7f000000000000000000000000000000000000000000000000000000000000000073ffffffffffffffffffffffffffffffffffffffff163373ffffffffffffffffffffffffffffffffffffffff16146109c757337f00000000000000000000000000000000000000000000000000000000000000006040517f1cf993f40000000000000000000000000000000000000000000000000000000081526004016109be929190612e98565b60405180910390fd5b6109d18282611595565b5050565b6109e66109e06114d4565b8261172f565b610a25576040517f08c379a0000000000000000000000000000000000000000000000000000000008152600401610a1c90612f33565b60405180910390fd5b610a308383836117c4565b505050565b6060600a8281548110610a4b57610a4a612f53565b5b906000526020600020018054610a6090612d42565b80601f0160208091040260200160405190810160405280929190818152602001828054610a8c90612d42565b8015610ad95780601f10610aae57610100808354040283529160200191610ad9565b820191906000526020600020905b815481529060010190602001808311610abc57829003601f168201915b50505050509050919050565b610aed611a2b565b600047905060003373ffffffffffffffffffffffffffffffffffffffff1682604051610b1890612fb3565b60006040518083038185875af1925050503d8060008114610b55576040519150601f19603f3d011682016040523d82523d6000602084013e610b5a565b606091505b5050905080610b95576040517fca7e25b700000000000000000000000000000000000000000000000000000000815260040160405180910390fd5b5050565b610bb48383836040518060200160405280600081525061117b565b505050565b610bc161240f565b6040518060600160405280600a8152602001601e81526020016064815250905090565b6000806002600084815260200190815260200160002060009054906101000a900473ffffffffffffffffffffffffffffffffffffffff169050600073ffffffffffffffffffffffffffffffffffffffff168173ffffffffffffffffffffffffffffffffffffffff161415610c8d576040517f08c379a0000000000000000000000000000000000000000000000000000000008152600401610c8490613014565b60405180910390fd5b80915050919050565b6000600954905090565b60008073ffffffffffffffffffffffffffffffffffffffff168273ffffffffffffffffffffffffffffffffffffffff161415610d11576040517f08c379a0000000000000000000000000000000000000000000000000000000008152600401610d08906130a6565b60405180910390fd5b600360008373ffffffffffffffffffffffffffffffffffffffff1673ffffffffffffffffffffffffffffffffffffffff168152602001908152602001600020549050919050565b610d60611a2b565b610d6a6000611aa9565b565b60007f0000000000000000000000000000000000000000000000000000000000000000905090565b6000600760009054906101000a900473ffffffffffffffffffffffffffffffffffffffff16905090565b606060018054610dcd90612d42565b80601f0160208091040260200160405190810160405280929190818152602001828054610df990612d42565b8015610e465780601f10610e1b57610100808354040283529160200191610e46565b820191906000526020600020905b815481529060010190602001808311610e2957829003601f168201915b5050505050905090565b610e62610e5b6114d4565b8383611b6f565b5050565b60086020528060005260406000206000915054906101000a900473ffffffffffffffffffffffffffffffffffffffff1681565b600080600090506000610eaa610bb9565b905060005b6003811015610f4357828510158015610ee95750818160038110610ed657610ed5612f53565b5b602002015183610ee691906130f5565b85105b15610f0b57806002811115610f0157610f00612b09565b5b9350505050610f76565b818160038110610f1e57610f1d612f53565b5b602002015183610f2e91906130f5565b92508080610f3b9061314b565b915050610eaf565b506040517f86775e0700000000000000000000000000000000000000000000000000000000815260040160405180910390fd5b919050565b60007f0000000000000000000000000000000000000000000000000000000000000000341015610fd7576040517fb90f491000000000000000000000000000000000000000000000000000000000815260040160405180910390fd5b7f000000000000000000000000000000000000000000000000000000000000000073ffffffffffffffffffffffffffffffffffffffff16635d3b1d307f00000000000000000000000000000000000000000000000000000000000000007f000000000000000000000000000000000000000000000000000000000000000060037f000000000000000000000000000000000000000000000000000000000000000060016040518663ffffffff1660e01b815260040161109a95949392919061320c565b602060405180830381600087803b1580156110b457600080fd5b505af11580156110c8573d6000803e3d6000fd5b505050506040513d601f19601f820116820180604052508101906110ec9190613274565b9050336008600083815260200190815260200160002060006101000a81548173ffffffffffffffffffffffffffffffffffffffff021916908373ffffffffffffffffffffffffffffffffffffffff160217905550807ff873236e6cc0ecc5be1a9a35c95ee5b8d1ac4cc7bfef0cc5060391d6cc98e26b336040516111709190612702565b60405180910390a290565b61118c6111866114d4565b8361172f565b6111cb576040517f08c379a00000000000000000000000000000000000000000000000000000000081526004016111c290612f33565b60405180910390fd5b6111d784848484611cdc565b50505050565b60606111e882611489565b600060066000848152602001908152602001600020805461120890612d42565b80601f016020809104026020016040519081016040528092919081815260200182805461123490612d42565b80156112815780601f1061125657610100808354040283529160200191611281565b820191906000526020600020905b81548152906001019060200180831161126457829003601f168201915b505050505090506000611292611d38565b90506000815114156112a85781925050506112eb565b6000825111156112dd5780826040516020016112c59291906132dd565b604051602081830303815290604052925050506112eb565b6112e684611d4f565b925050505b919050565b6000600560008473ffffffffffffffffffffffffffffffffffffffff1673ffffffffffffffffffffffffffffffffffffffff16815260200190815260200160002060008373ffffffffffffffffffffffffffffffffffffffff1673ffffffffffffffffffffffffffffffffffffffff16815260200190815260200160002060009054906101000a900460ff16905092915050565b6000600b60009054906101000a900460ff16905090565b6113a3611a2b565b600073ffffffffffffffffffffffffffffffffffffffff168173ffffffffffffffffffffffffffffffffffffffff161415611413576040517f08c379a000000000000000000000000000000000000000000000000000000000815260040161140a90613373565b60405180910390fd5b61141c81611aa9565b50565b60007f01ffc9a7000000000000000000000000000000000000000000000000000000007bffffffffffffffffffffffffffffffffffffffffffffffffffffffff1916827bffffffffffffffffffffffffffffffffffffffffffffffffffffffff1916149050919050565b61149281611db7565b6114d1576040517f08c379a00000000000000000000000000000000000000000000000000000000081526004016114c890613014565b60405180910390fd5b50565b600033905090565b816004600083815260200190815260200160002060006101000a81548173ffffffffffffffffffffffffffffffffffffffff021916908373ffffffffffffffffffffffffffffffffffffffff160217905550808273ffffffffffffffffffffffffffffffffffffffff1661154f83610be4565b73ffffffffffffffffffffffffffffffffffffffff167f8c5be1e5ebec7d5bd14f71427d1e84f3dd0314c0f7b2291e5b200ac8c7c3b92560405160405180910390a45050565b60006008600084815260200190815260200160002060009054906101000a900473ffffffffffffffffffffffffffffffffffffffff1690506000600954905060006064846000815181106115ec576115eb612f53565b5b60200260200101516115fe91906133c2565b9050600061160b82610e99565b9050600160095461161c91906130f5565b60098190555061162c8484611e23565b6116ee83600a83600281111561164557611644612b09565b5b8154811061165657611655612f53565b5b90600052602060002001805461166b90612d42565b80601f016020809104026020016040519081016040528092919081815260200182805461169790612d42565b80156116e45780601f106116b9576101008083540402835291602001916116e4565b820191906000526020600020905b8154815290600101906020018083116116c757829003601f168201915b5050505050611e41565b7f8a269f26b688e110e9cbd887d163dab35cae678fa353a0292de532c0cac1ecdc818560405161171f9291906133f3565b60405180910390a1505050505050565b60008061173b83610be4565b90508073ffffffffffffffffffffffffffffffffffffffff168473ffffffffffffffffffffffffffffffffffffffff16148061177d575061177c81856112f0565b5b806117bb57508373ffffffffffffffffffffffffffffffffffffffff166117a3846107b7565b73ffffffffffffffffffffffffffffffffffffffff16145b91505092915050565b8273ffffffffffffffffffffffffffffffffffffffff166117e482610be4565b73ffffffffffffffffffffffffffffffffffffffff161461183a576040517f08c379a00000000000000000000000000000000000000000000000000000000081526004016118319061348e565b60405180910390fd5b600073ffffffffffffffffffffffffffffffffffffffff168273ffffffffffffffffffffffffffffffffffffffff1614156118aa576040517f08c379a00000000000000000000000000000000000000000000000000000000081526004016118a190613520565b60405180910390fd5b6118b5838383611eb5565b6118c06000826114dc565b6001600360008573ffffffffffffffffffffffffffffffffffffffff1673ffffffffffffffffffffffffffffffffffffffff16815260200190815260200160002060008282546119109190613540565b925050819055506001600360008473ffffffffffffffffffffffffffffffffffffffff1673ffffffffffffffffffffffffffffffffffffffff168152602001908152602001600020600082825461196791906130f5565b92505081905550816002600083815260200190815260200160002060006101000a81548173ffffffffffffffffffffffffffffffffffffffff021916908373ffffffffffffffffffffffffffffffffffffffff160217905550808273ffffffffffffffffffffffffffffffffffffffff168473ffffffffffffffffffffffffffffffffffffffff167fddf252ad1be2c89b69c2b068fc378daa952ba7f163c4a11628f55a4df523b3ef60405160405180910390a4611a26838383611eba565b505050565b611a336114d4565b73ffffffffffffffffffffffffffffffffffffffff16611a51610d94565b73ffffffffffffffffffffffffffffffffffffffff1614611aa7576040517f08c379a0000000000000000000000000000000000000000000000000000000008152600401611a9e906135c0565b60405180910390fd5b565b6000600760009054906101000a900473ffffffffffffffffffffffffffffffffffffffff16905081600760006101000a81548173ffffffffffffffffffffffffffffffffffffffff021916908373ffffffffffffffffffffffffffffffffffffffff1602179055508173ffffffffffffffffffffffffffffffffffffffff168173ffffffffffffffffffffffffffffffffffffffff167f8be0079c531659141344cd1fd0a4f28419497f9722a3daafe3b4186f6b6457e060405160405180910390a35050565b8173ffffffffffffffffffffffffffffffffffffffff168373ffffffffffffffffffffffffffffffffffffffff161415611bde576040517f08c379a0000000000000000000000000000000000000000000000000000000008152600401611bd59061362c565b60405180910390fd5b80600560008573ffffffffffffffffffffffffffffffffffffffff1673ffffffffffffffffffffffffffffffffffffffff16815260200190815260200160002060008473ffffffffffffffffffffffffffffffffffffffff1673ffffffffffffffffffffffffffffffffffffffff16815260200190815260200160002060006101000a81548160ff0219169083151502179055508173ffffffffffffffffffffffffffffffffffffffff168373ffffffffffffffffffffffffffffffffffffffff167f17307eab39ab6107e8899845ad3d59bd9653f200f220920489ca2b5937696c3183604051611ccf9190612588565b60405180910390a3505050565b611ce78484846117c4565b611cf384848484611ebf565b611d32576040517f08c379a0000000000000000000000000000000000000000000000000000000008152600401611d29906136be565b60405180910390fd5b50505050565b606060405180602001604052806000815250905090565b6060611d5a82611489565b6000611d64611d38565b90506000815111611d845760405180602001604052806000815250611daf565b80611d8e84612056565b604051602001611d9f9291906132dd565b6040516020818303038152906040525b915050919050565b60008073ffffffffffffffffffffffffffffffffffffffff166002600084815260200190815260200160002060009054906101000a900473ffffffffffffffffffffffffffffffffffffffff1673ffffffffffffffffffffffffffffffffffffffff1614159050919050565b611e3d8282604051806020016040528060008152506121b7565b5050565b611e4a82611db7565b611e89576040517f08c379a0000000000000000000000000000000000000000000000000000000008152600401611e8090613750565b60405180910390fd5b80600660008481526020019081526020016000209080519060200190611eb0929190612431565b505050565b505050565b505050565b6000611ee08473ffffffffffffffffffffffffffffffffffffffff16612212565b15612049578373ffffffffffffffffffffffffffffffffffffffff1663150b7a02611f096114d4565b8786866040518563ffffffff1660e01b8152600401611f2b94939291906137c5565b602060405180830381600087803b158015611f4557600080fd5b505af1925050508015611f7657506040513d601f19601f82011682018060405250810190611f739190613826565b60015b611ff9573d8060008114611fa6576040519150601f19603f3d011682016040523d82523d6000602084013e611fab565b606091505b50600081511415611ff1576040517f08c379a0000000000000000000000000000000000000000000000000000000008152600401611fe8906136be565b60405180910390fd5b805181602001fd5b63150b7a0260e01b7bffffffffffffffffffffffffffffffffffffffffffffffffffffffff1916817bffffffffffffffffffffffffffffffffffffffffffffffffffffffff19161491505061204e565b600190505b949350505050565b6060600082141561209e576040518060400160405280600181526020017f300000000000000000000000000000000000000000000000000000000000000081525090506121b2565b600082905060005b600082146120d05780806120b99061314b565b915050600a826120c99190613853565b91506120a6565b60008167ffffffffffffffff8111156120ec576120eb61278e565b5b6040519080825280601f01601f19166020018201604052801561211e5781602001600182028036833780820191505090505b5090505b600085146121ab576001826121379190613540565b9150600a8561214691906133c2565b603061215291906130f5565b60f81b81838151811061216857612167612f53565b5b60200101907effffffffffffffffffffffffffffffffffffffffffffffffffffffffffffff1916908160001a905350600a856121a49190613853565b9450612122565b8093505050505b919050565b6121c18383612235565b6121ce6000848484611ebf565b61220d576040517f08c379a0000000000000000000000000000000000000000000000000000000008152600401612204906136be565b60405180910390fd5b505050565b6000808273ffffffffffffffffffffffffffffffffffffffff163b119050919050565b600073ffffffffffffffffffffffffffffffffffffffff168273ffffffffffffffffffffffffffffffffffffffff1614156122a5576040517f08c379a000000000000000000000000000000000000000000000000000000000815260040161229c906138d0565b60405180910390fd5b6122ae81611db7565b156122ee576040517f08c379a00000000000000000000000000000000000000000000000000000000081526004016122e59061393c565b60405180910390fd5b6122fa60008383611eb5565b6001600360008473ffffffffffffffffffffffffffffffffffffffff1673ffffffffffffffffffffffffffffffffffffffff168152602001908152602001600020600082825461234a91906130f5565b92505081905550816002600083815260200190815260200160002060006101000a81548173ffffffffffffffffffffffffffffffffffffffff021916908373ffffffffffffffffffffffffffffffffffffffff160217905550808273ffffffffffffffffffffffffffffffffffffffff16600073ffffffffffffffffffffffffffffffffffffffff167fddf252ad1be2c89b69c2b068fc378daa952ba7f163c4a11628f55a4df523b3ef60405160405180910390a461240b60008383611eba565b5050565b6040518060600160405280600390602082028036833780820191505090505090565b82805461243d90612d42565b90600052602060002090601f01602090048101928261245f57600085556124a6565b82601f1061247857805160ff19168380011785556124a6565b828001600101855582156124a6579182015b828111156124a557825182559160200191906001019061248a565b5b5090506124b391906124b7565b5090565b5b808211156124d05760008160009055506001016124b8565b5090565b6000604051905090565b600080fd5b600080fd5b60007fffffffff0000000000000000000000000000000000000000000000000000000082169050919050565b61251d816124e8565b811461252857600080fd5b50565b60008135905061253a81612514565b92915050565b600060208284031215612556576125556124de565b5b60006125648482850161252b565b91505092915050565b60008115159050919050565b6125828161256d565b82525050565b600060208201905061259d6000830184612579565b92915050565b600081519050919050565b600082825260208201905092915050565b60005b838110156125dd5780820151818401526020810190506125c2565b838111156125ec576000848401525b50505050565b6000601f19601f8301169050919050565b600061260e826125a3565b61261881856125ae565b93506126288185602086016125bf565b612631816125f2565b840191505092915050565b600060208201905081810360008301526126568184612603565b905092915050565b6000819050919050565b6126718161265e565b811461267c57600080fd5b50565b60008135905061268e81612668565b92915050565b6000602082840312156126aa576126a96124de565b5b60006126b88482850161267f565b91505092915050565b600073ffffffffffffffffffffffffffffffffffffffff82169050919050565b60006126ec826126c1565b9050919050565b6126fc816126e1565b82525050565b600060208201905061271760008301846126f3565b92915050565b612726816126e1565b811461273157600080fd5b50565b6000813590506127438161271d565b92915050565b600080604083850312156127605761275f6124de565b5b600061276e85828601612734565b925050602061277f8582860161267f565b9150509250929050565b600080fd5b7f4e487b7100000000000000000000000000000000000000000000000000000000600052604160045260246000fd5b6127c6826125f2565b810181811067ffffffffffffffff821117156127e5576127e461278e565b5b80604052505050565b60006127f86124d4565b905061280482826127bd565b919050565b600067ffffffffffffffff8211156128245761282361278e565b5b602082029050602081019050919050565b600080fd5b600061284d61284884612809565b6127ee565b905080838252602082019050602084028301858111156128705761286f612835565b5b835b818110156128995780612885888261267f565b845260208401935050602081019050612872565b5050509392505050565b600082601f8301126128b8576128b7612789565b5b81356128c884826020860161283a565b91505092915050565b600080604083850312156128e8576128e76124de565b5b60006128f68582860161267f565b925050602083013567ffffffffffffffff811115612917576129166124e3565b5b612923858286016128a3565b9150509250929050565b600080600060608486031215612946576129456124de565b5b600061295486828701612734565b935050602061296586828701612734565b92505060406129768682870161267f565b9150509250925092565b600060039050919050565b600081905092915050565b6000819050919050565b6129a98161265e565b82525050565b60006129bb83836129a0565b60208301905092915050565b6000602082019050919050565b6129dd81612980565b6129e7818461298b565b92506129f282612996565b8060005b83811015612a23578151612a0a87826129af565b9650612a15836129c7565b9250506001810190506129f6565b505050505050565b6000606082019050612a4060008301846129d4565b92915050565b612a4f8161265e565b82525050565b6000602082019050612a6a6000830184612a46565b92915050565b600060208284031215612a8657612a856124de565b5b6000612a9484828501612734565b91505092915050565b612aa68161256d565b8114612ab157600080fd5b50565b600081359050612ac381612a9d565b92915050565b60008060408385031215612ae057612adf6124de565b5b6000612aee85828601612734565b9250506020612aff85828601612ab4565b9150509250929050565b7f4e487b7100000000000000000000000000000000000000000000000000000000600052602160045260246000fd5b60038110612b4957612b48612b09565b5b50565b6000819050612b5a82612b38565b919050565b6000612b6a82612b4c565b9050919050565b612b7a81612b5f565b82525050565b6000602082019050612b956000830184612b71565b92915050565b600080fd5b600067ffffffffffffffff821115612bbb57612bba61278e565b5b612bc4826125f2565b9050602081019050919050565b82818337600083830152505050565b6000612bf3612bee84612ba0565b6127ee565b905082815260208101848484011115612c0f57612c0e612b9b565b5b612c1a848285612bd1565b509392505050565b600082601f830112612c3757612c36612789565b5b8135612c47848260208601612be0565b91505092915050565b60008060008060808587031215612c6a57612c696124de565b5b6000612c7887828801612734565b9450506020612c8987828801612734565b9350506040612c9a8782880161267f565b925050606085013567ffffffffffffffff811115612cbb57612cba6124e3565b5b612cc787828801612c22565b91505092959194509250565b60008060408385031215612cea57612ce96124de565b5b6000612cf885828601612734565b9250506020612d0985828601612734565b9150509250929050565b7f4e487b7100000000000000000000000000000000000000000000000000000000600052602260045260246000fd5b60006002820490506001821680612d5a57607f821691505b60208210811415612d6e57612d6d612d13565b5b50919050565b7f4552433732313a20617070726f76616c20746f2063757272656e74206f776e6560008201527f7200000000000000000000000000000000000000000000000000000000000000602082015250565b6000612dd06021836125ae565b9150612ddb82612d74565b604082019050919050565b60006020820190508181036000830152612dff81612dc3565b9050919050565b7f4552433732313a20617070726f76652063616c6c6572206973206e6f7420746f60008201527f6b656e206f776e6572206e6f7220617070726f76656420666f7220616c6c0000602082015250565b6000612e62603e836125ae565b9150612e6d82612e06565b604082019050919050565b60006020820190508181036000830152612e9181612e55565b9050919050565b6000604082019050612ead60008301856126f3565b612eba60208301846126f3565b9392505050565b7f4552433732313a2063616c6c6572206973206e6f7420746f6b656e206f776e6560008201527f72206e6f7220617070726f766564000000000000000000000000000000000000602082015250565b6000612f1d602e836125ae565b9150612f2882612ec1565b604082019050919050565b60006020820190508181036000830152612f4c81612f10565b9050919050565b7f4e487b7100000000000000000000000000000000000000000000000000000000600052603260045260246000fd5b600081905092915050565b50565b6000612f9d600083612f82565b9150612fa882612f8d565b600082019050919050565b6000612fbe82612f90565b9150819050919050565b7f4552433732313a20696e76616c696420746f6b656e2049440000000000000000600082015250565b6000612ffe6018836125ae565b915061300982612fc8565b602082019050919050565b6000602082019050818103600083015261302d81612ff1565b9050919050565b7f4552433732313a2061646472657373207a65726f206973206e6f74206120766160008201527f6c6964206f776e65720000000000000000000000000000000000000000000000602082015250565b60006130906029836125ae565b915061309b82613034565b604082019050919050565b600060208201905081810360008301526130bf81613083565b9050919050565b7f4e487b7100000000000000000000000000000000000000000000000000000000600052601160045260246000fd5b60006131008261265e565b915061310b8361265e565b9250827fffffffffffffffffffffffffffffffffffffffffffffffffffffffffffffffff038211156131405761313f6130c6565b5b828201905092915050565b60006131568261265e565b91507fffffffffffffffffffffffffffffffffffffffffffffffffffffffffffffffff821415613189576131886130c6565b5b600182019050919050565b6000819050919050565b6131a781613194565b82525050565b600067ffffffffffffffff82169050919050565b6131ca816131ad565b82525050565b600061ffff82169050919050565b6131e7816131d0565b82525050565b600063ffffffff82169050919050565b613206816131ed565b82525050565b600060a082019050613221600083018861319e565b61322e60208301876131c1565b61323b60408301866131de565b61324860608301856131fd565b61325560808301846131fd565b9695505050505050565b60008151905061326e81612668565b92915050565b60006020828403121561328a576132896124de565b5b60006132988482850161325f565b91505092915050565b600081905092915050565b60006132b7826125a3565b6132c181856132a1565b93506132d18185602086016125bf565b80840191505092915050565b60006132e982856132ac565b91506132f582846132ac565b91508190509392505050565b7f4f776e61626c653a206e6577206f776e657220697320746865207a65726f206160008201527f6464726573730000000000000000000000000000000000000000000000000000602082015250565b600061335d6026836125ae565b915061336882613301565b604082019050919050565b6000602082019050818103600083015261338c81613350565b9050919050565b7f4e487b7100000000000000000000000000000000000000000000000000000000600052601260045260246000fd5b60006133cd8261265e565b91506133d88361265e565b9250826133e8576133e7613393565b5b828206905092915050565b60006040820190506134086000830185612b71565b61341560208301846126f3565b9392505050565b7f4552433732313a207472616e736665722066726f6d20696e636f72726563742060008201527f6f776e6572000000000000000000000000000000000000000000000000000000602082015250565b60006134786025836125ae565b91506134838261341c565b604082019050919050565b600060208201905081810360008301526134a78161346b565b9050919050565b7f4552433732313a207472616e7366657220746f20746865207a65726f2061646460008201527f7265737300000000000000000000000000000000000000000000000000000000602082015250565b600061350a6024836125ae565b9150613515826134ae565b604082019050919050565b60006020820190508181036000830152613539816134fd565b9050919050565b600061354b8261265e565b91506135568361265e565b925082821015613569576135686130c6565b5b828203905092915050565b7f4f776e61626c653a2063616c6c6572206973206e6f7420746865206f776e6572600082015250565b60006135aa6020836125ae565b91506135b582613574565b602082019050919050565b600060208201905081810360008301526135d98161359d565b9050919050565b7f4552433732313a20617070726f766520746f2063616c6c657200000000000000600082015250565b60006136166019836125ae565b9150613621826135e0565b602082019050919050565b6000602082019050818103600083015261364581613609565b9050919050565b7f4552433732313a207472616e7366657220746f206e6f6e20455243373231526560008201527f63656976657220696d706c656d656e7465720000000000000000000000000000602082015250565b60006136a86032836125ae565b91506136b38261364c565b604082019050919050565b600060208201905081810360008301526136d78161369b565b9050919050565b7f45524337323155524953746f726167653a2055524920736574206f66206e6f6e60008201527f6578697374656e7420746f6b656e000000000000000000000000000000000000602082015250565b600061373a602e836125ae565b9150613745826136de565b604082019050919050565b600060208201905081810360008301526137698161372d565b9050919050565b600081519050919050565b600082825260208201905092915050565b600061379782613770565b6137a1818561377b565b93506137b18185602086016125bf565b6137ba816125f2565b840191505092915050565b60006080820190506137da60008301876126f3565b6137e760208301866126f3565b6137f46040830185612a46565b8181036060830152613806818461378c565b905095945050505050565b60008151905061382081612514565b92915050565b60006020828403121561383c5761383b6124de565b5b600061384a84828501613811565b91505092915050565b600061385e8261265e565b91506138698361265e565b92508261387957613878613393565b5b828204905092915050565b7f4552433732313a206d696e7420746f20746865207a65726f2061646472657373600082015250565b60006138ba6020836125ae565b91506138c582613884565b602082019050919050565b600060208201905081810360008301526138e9816138ad565b9050919050565b7f4552433732313a20746f6b656e20616c7265616479206d696e74656400000000600082015250565b6000613926601c836125ae565b9150613931826138f0565b602082019050919050565b6000602082019050818103600083015261395581613919565b905091905056fea264697066735822122069acd2d5b90692d1cbd98e02126c786f99fd43169c57475648c97face541446664736f6c63430008080033",
  "devdoc": {
    "kind": "dev",
    "methods": {
      "approve(address,uint256)": {
        "details": "See {IERC721-approve}."
      },
      "balanceOf(address)": {
        "details": "See {IERC721-balanceOf}."
      },
      "getApproved(uint256)": {
        "details": "See {IERC721-getApproved}."
      },
      "isApprovedForAll(address,address)": {
        "details": "See {IERC721-isApprovedForAll}."
      },
      "name()": {
        "details": "See {IERC721Metadata-name}."
      },
      "owner()": {
        "details": "Returns the address of the current owner."
      },
      "ownerOf(uint256)": {
        "details": "See {IERC721-ownerOf}."
      },
      "renounceOwnership()": {
        "details": "Leaves the contract without owner. It will not be possible to call `onlyOwner` functions anymore. Can only be called by the current owner. NOTE: Renouncing ownership will leave the contract without an owner, thereby removing any functionality that is only available to the owner."
      },
      "safeTransferFrom(address,address,uint256)": {
        "details": "See {IERC721-safeTransferFrom}."
      },
      "safeTransferFrom(address,address,uint256,bytes)": {
        "details": "See {IERC721-safeTransferFrom}."
      },
      "setApprovalForAll(address,bool)": {
        "details": "See {IERC721-setApprovalForAll}."
      },
      "supportsInterface(bytes4)": {
        "details": "See {IERC165-supportsInterface}."
      },
      "symbol()": {
        "details": "See {IERC721Metadata-symbol}."
      },
      "tokenURI(uint256)": {
        "details": "See {IERC721Metadata-tokenURI}."
      },
      "transferFrom(address,address,uint256)": {
        "details": "See {IERC721-transferFrom}."
      },
      "transferOwnership(address)": {
        "details": "Transfers ownership of the contract to a new account (`newOwner`). Can only be called by the current owner."
      }
    },
    "version": 1
  },
  "userdoc": {
    "kind": "user",
    "methods": {},
    "version": 1
  },
  "storageLayout": {
    "storage": [
      {
        "astId": 285,
        "contract": "contracts/RandomIpfsNft.sol:RandomIpfsNft",
        "label": "_name",
        "offset": 0,
        "slot": "0",
        "type": "t_string_storage"
      },
      {
        "astId": 287,
        "contract": "contracts/RandomIpfsNft.sol:RandomIpfsNft",
        "label": "_symbol",
        "offset": 0,
        "slot": "1",
        "type": "t_string_storage"
      },
      {
        "astId": 291,
        "contract": "contracts/RandomIpfsNft.sol:RandomIpfsNft",
        "label": "_owners",
        "offset": 0,
        "slot": "2",
        "type": "t_mapping(t_uint256,t_address)"
      },
      {
        "astId": 295,
        "contract": "contracts/RandomIpfsNft.sol:RandomIpfsNft",
        "label": "_balances",
        "offset": 0,
        "slot": "3",
        "type": "t_mapping(t_address,t_uint256)"
      },
      {
        "astId": 299,
        "contract": "contracts/RandomIpfsNft.sol:RandomIpfsNft",
        "label": "_tokenApprovals",
        "offset": 0,
        "slot": "4",
        "type": "t_mapping(t_uint256,t_address)"
      },
      {
        "astId": 305,
        "contract": "contracts/RandomIpfsNft.sol:RandomIpfsNft",
        "label": "_operatorApprovals",
        "offset": 0,
        "slot": "5",
        "type": "t_mapping(t_address,t_mapping(t_address,t_bool))"
      },
      {
        "astId": 1273,
        "contract": "contracts/RandomIpfsNft.sol:RandomIpfsNft",
        "label": "_tokenURIs",
        "offset": 0,
        "slot": "6",
        "type": "t_mapping(t_uint256,t_string_storage)"
      },
      {
        "astId": 154,
        "contract": "contracts/RandomIpfsNft.sol:RandomIpfsNft",
        "label": "_owner",
        "offset": 0,
        "slot": "7",
        "type": "t_address"
      },
      {
        "astId": 2034,
        "contract": "contracts/RandomIpfsNft.sol:RandomIpfsNft",
        "label": "s_requestIdToSender",
        "offset": 0,
        "slot": "8",
        "type": "t_mapping(t_uint256,t_address)"
      },
      {
        "astId": 2036,
        "contract": "contracts/RandomIpfsNft.sol:RandomIpfsNft",
        "label": "s_tokenCounter",
        "offset": 0,
        "slot": "9",
        "type": "t_uint256"
      },
      {
        "astId": 2042,
        "contract": "contracts/RandomIpfsNft.sol:RandomIpfsNft",
        "label": "s_dogTokenUris",
        "offset": 0,
        "slot": "10",
        "type": "t_array(t_string_storage)dyn_storage"
      },
      {
        "astId": 2046,
        "contract": "contracts/RandomIpfsNft.sol:RandomIpfsNft",
        "label": "s_initialized",
        "offset": 0,
        "slot": "11",
        "type": "t_bool"
      }
    ],
    "types": {
      "t_address": {
        "encoding": "inplace",
        "label": "address",
        "numberOfBytes": "20"
      },
      "t_array(t_string_storage)dyn_storage": {
        "base": "t_string_storage",
        "encoding": "dynamic_array",
        "label": "string[]",
        "numberOfBytes": "32"
      },
      "t_bool": {
        "encoding": "inplace",
        "label": "bool",
        "numberOfBytes": "1"
      },
      "t_mapping(t_address,t_bool)": {
        "encoding": "mapping",
        "key": "t_address",
        "label": "mapping(address => bool)",
        "numberOfBytes": "32",
        "value": "t_bool"
      },
      "t_mapping(t_address,t_mapping(t_address,t_bool))": {
        "encoding": "mapping",
        "key": "t_address",
        "label": "mapping(address => mapping(address => bool))",
        "numberOfBytes": "32",
        "value": "t_mapping(t_address,t_bool)"
      },
      "t_mapping(t_address,t_uint256)": {
        "encoding": "mapping",
        "key": "t_address",
        "label": "mapping(address => uint256)",
        "numberOfBytes": "32",
        "value": "t_uint256"
      },
      "t_mapping(t_uint256,t_address)": {
        "encoding": "mapping",
        "key": "t_uint256",
        "label": "mapping(uint256 => address)",
        "numberOfBytes": "32",
        "value": "t_address"
      },
      "t_mapping(t_uint256,t_string_storage)": {
        "encoding": "mapping",
        "key": "t_uint256",
        "label": "mapping(uint256 => string)",
        "numberOfBytes": "32",
        "value": "t_string_storage"
      },
      "t_string_storage": {
        "encoding": "bytes",
        "label": "string",
        "numberOfBytes": "32"
      },
      "t_uint256": {
        "encoding": "inplace",
        "label": "uint256",
        "numberOfBytes": "32"
      }
    }
  }
}