{
  "address": "0x8c0ed4F6BCD8211C06CB29e1E58623C4dF99BC4D",
  "abi": [
    {
      "inputs": [
        {
          "internalType": "address",
          "name": "vrfCoordinatorV2",
          "type": "address"
        },
        {
          "internalType": "uint64",
          "name": "subscriptionId",
          "type": "uint64"
        },
        {
          "internalType": "bytes32",
          "name": "gasLane",
          "type": "bytes32"
        },
        {
          "internalType": "uint256",
          "name": "mintFee",
          "type": "uint256"
        },
        {
          "internalType": "uint32",
          "name": "callbackGasLimit",
          "type": "uint32"
        },
        {
          "internalType": "string[3]",
          "name": "dogTokenUris",
          "type": "string[3]"
        }
      ],
      "stateMutability": "nonpayable",
      "type": "constructor"
    },
    {
      "inputs": [
        {
          "internalType": "address",
          "name": "have",
          "type": "address"
        },
        {
          "internalType": "address",
          "name": "want",
          "type": "address"
        }
      ],
      "name": "OnlyCoordinatorCanFulfill",
      "type": "error"
    },
    {
      "inputs": [],
      "name": "RandomIpfsNft__AlreadyInitialized",
      "type": "error"
    },
    {
      "inputs": [],
      "name": "RandomIpfsNft__NeedMoreETHSent",
      "type": "error"
    },
    {
      "inputs": [],
      "name": "RandomIpfsNft__RanceOutOfBounds",
      "type": "error"
    },
    {
      "inputs": [],
      "name": "RandomIpfsNft__TransferFailed",
      "type": "error"
    },
    {
      "anonymous": false,
      "inputs": [
        {
          "indexed": true,
          "internalType": "address",
          "name": "owner",
          "type": "address"
        },
        {
          "indexed": true,
          "internalType": "address",
          "name": "approved",
          "type": "address"
        },
        {
          "indexed": true,
          "internalType": "uint256",
          "name": "tokenId",
          "type": "uint256"
        }
      ],
      "name": "Approval",
      "type": "event"
    },
    {
      "anonymous": false,
      "inputs": [
        {
          "indexed": true,
          "internalType": "address",
          "name": "owner",
          "type": "address"
        },
        {
          "indexed": true,
          "internalType": "address",
          "name": "operator",
          "type": "address"
        },
        {
          "indexed": false,
          "internalType": "bool",
          "name": "approved",
          "type": "bool"
        }
      ],
      "name": "ApprovalForAll",
      "type": "event"
    },
    {
      "anonymous": false,
      "inputs": [
        {
          "indexed": false,
          "internalType": "enum RandomIpfsNft.Breed",
          "name": "dogBreed",
          "type": "uint8"
        },
        {
          "indexed": false,
          "internalType": "address",
          "name": "minter",
          "type": "address"
        }
      ],
      "name": "NftMinted",
      "type": "event"
    },
    {
      "anonymous": false,
      "inputs": [
        {
          "indexed": true,
          "internalType": "uint256",
          "name": "requestId",
          "type": "uint256"
        },
        {
          "indexed": false,
          "internalType": "address",
          "name": "requester",
          "type": "address"
        }
      ],
      "name": "NftRequested",
      "type": "event"
    },
    {
      "anonymous": false,
      "inputs": [
        {
          "indexed": true,
          "internalType": "address",
          "name": "previousOwner",
          "type": "address"
        },
        {
          "indexed": true,
          "internalType": "address",
          "name": "newOwner",
          "type": "address"
        }
      ],
      "name": "OwnershipTransferred",
      "type": "event"
    },
    {
      "anonymous": false,
      "inputs": [
        {
          "indexed": true,
          "internalType": "address",
          "name": "from",
          "type": "address"
        },
        {
          "indexed": true,
          "internalType": "address",
          "name": "to",
          "type": "address"
        },
        {
          "indexed": true,
          "internalType": "uint256",
          "name": "tokenId",
          "type": "uint256"
        }
      ],
      "name": "Transfer",
      "type": "event"
    },
    {
      "inputs": [
        {
          "internalType": "address",
          "name": "to",
          "type": "address"
        },
        {
          "internalType": "uint256",
          "name": "tokenId",
          "type": "uint256"
        }
      ],
      "name": "approve",
      "outputs": [],
      "stateMutability": "nonpayable",
      "type": "function"
    },
    {
      "inputs": [
        {
          "internalType": "address",
          "name": "owner",
          "type": "address"
        }
      ],
      "name": "balanceOf",
      "outputs": [
        {
          "internalType": "uint256",
          "name": "",
          "type": "uint256"
        }
      ],
      "stateMutability": "view",
      "type": "function"
    },
    {
      "inputs": [
        {
          "internalType": "uint256",
          "name": "tokenId",
          "type": "uint256"
        }
      ],
      "name": "getApproved",
      "outputs": [
        {
          "internalType": "address",
          "name": "",
          "type": "address"
        }
      ],
      "stateMutability": "view",
      "type": "function"
    },
    {
      "inputs": [
        {
          "internalType": "uint256",
          "name": "moddedRng",
          "type": "uint256"
        }
      ],
      "name": "getBreedFromModdedRng",
      "outputs": [
        {
          "internalType": "enum RandomIpfsNft.Breed",
          "name": "",
          "type": "uint8"
        }
      ],
      "stateMutability": "pure",
      "type": "function"
    },
    {
      "inputs": [],
      "name": "getChanceArray",
      "outputs": [
        {
          "internalType": "uint256[3]",
          "name": "",
          "type": "uint256[3]"
        }
      ],
      "stateMutability": "pure",
      "type": "function"
    },
    {
      "inputs": [
        {
          "internalType": "uint256",
          "name": "index",
          "type": "uint256"
        }
      ],
      "name": "getDogTokenUris",
      "outputs": [
        {
          "internalType": "string",
          "name": "",
          "type": "string"
        }
      ],
      "stateMutability": "view",
      "type": "function"
    },
    {
      "inputs": [],
      "name": "getInitialized",
      "outputs": [
        {
          "internalType": "bool",
          "name": "",
          "type": "bool"
        }
      ],
      "stateMutability": "view",
      "type": "function"
    },
    {
      "inputs": [],
      "name": "getMintFee",
      "outputs": [
        {
          "internalType": "uint256",
          "name": "",
          "type": "uint256"
        }
      ],
      "stateMutability": "view",
      "type": "function"
    },
    {
      "inputs": [],
      "name": "getTokenCounter",
      "outputs": [
        {
          "internalType": "uint256",
          "name": "",
          "type": "uint256"
        }
      ],
      "stateMutability": "view",
      "type": "function"
    },
    {
      "inputs": [
        {
          "internalType": "address",
          "name": "owner",
          "type": "address"
        },
        {
          "internalType": "address",
          "name": "operator",
          "type": "address"
        }
      ],
      "name": "isApprovedForAll",
      "outputs": [
        {
          "internalType": "bool",
          "name": "",
          "type": "bool"
        }
      ],
      "stateMutability": "view",
      "type": "function"
    },
    {
      "inputs": [],
      "name": "name",
      "outputs": [
        {
          "internalType": "string",
          "name": "",
          "type": "string"
        }
      ],
      "stateMutability": "view",
      "type": "function"
    },
    {
      "inputs": [],
      "name": "owner",
      "outputs": [
        {
          "internalType": "address",
          "name": "",
          "type": "address"
        }
      ],
      "stateMutability": "view",
      "type": "function"
    },
    {
      "inputs": [
        {
          "internalType": "uint256",
          "name": "tokenId",
          "type": "uint256"
        }
      ],
      "name": "ownerOf",
      "outputs": [
        {
          "internalType": "address",
          "name": "",
          "type": "address"
        }
      ],
      "stateMutability": "view",
      "type": "function"
    },
    {
      "inputs": [
        {
          "internalType": "uint256",
          "name": "requestId",
          "type": "uint256"
        },
        {
          "internalType": "uint256[]",
          "name": "randomWords",
          "type": "uint256[]"
        }
      ],
      "name": "rawFulfillRandomWords",
      "outputs": [],
      "stateMutability": "nonpayable",
      "type": "function"
    },
    {
      "inputs": [],
      "name": "renounceOwnership",
      "outputs": [],
      "stateMutability": "nonpayable",
      "type": "function"
    },
    {
      "inputs": [],
      "name": "requestNft",
      "outputs": [
        {
          "internalType": "uint256",
          "name": "requestId",
          "type": "uint256"
        }
      ],
      "stateMutability": "payable",
      "type": "function"
    },
    {
      "inputs": [
        {
          "internalType": "uint256",
          "name": "",
          "type": "uint256"
        }
      ],
      "name": "s_requestIdToSender",
      "outputs": [
        {
          "internalType": "address",
          "name": "",
          "type": "address"
        }
      ],
      "stateMutability": "view",
      "type": "function"
    },
    {
      "inputs": [],
      "name": "s_tokenCounter",
      "outputs": [
        {
          "internalType": "uint256",
          "name": "",
          "type": "uint256"
        }
      ],
      "stateMutability": "view",
      "type": "function"
    },
    {
      "inputs": [
        {
          "internalType": "address",
          "name": "from",
          "type": "address"
        },
        {
          "internalType": "address",
          "name": "to",
          "type": "address"
        },
        {
          "internalType": "uint256",
          "name": "tokenId",
          "type": "uint256"
        }
      ],
      "name": "safeTransferFrom",
      "outputs": [],
      "stateMutability": "nonpayable",
      "type": "function"
    },
    {
      "inputs": [
        {
          "internalType": "address",
          "name": "from",
          "type": "address"
        },
        {
          "internalType": "address",
          "name": "to",
          "type": "address"
        },
        {
          "internalType": "uint256",
          "name": "tokenId",
          "type": "uint256"
        },
        {
          "internalType": "bytes",
          "name": "data",
          "type": "bytes"
        }
      ],
      "name": "safeTransferFrom",
      "outputs": [],
      "stateMutability": "nonpayable",
      "type": "function"
    },
    {
      "inputs": [
        {
          "internalType": "address",
          "name": "operator",
          "type": "address"
        },
        {
          "internalType": "bool",
          "name": "approved",
          "type": "bool"
        }
      ],
      "name": "setApprovalForAll",
      "outputs": [],
      "stateMutability": "nonpayable",
      "type": "function"
    },
    {
      "inputs": [
        {
          "internalType": "bytes4",
          "name": "interfaceId",
          "type": "bytes4"
        }
      ],
      "name": "supportsInterface",
      "outputs": [
        {
          "internalType": "bool",
          "name": "",
          "type": "bool"
        }
      ],
      "stateMutability": "view",
      "type": "function"
    },
    {
      "inputs": [],
      "name": "symbol",
      "outputs": [
        {
          "internalType": "string",
          "name": "",
          "type": "string"
        }
      ],
      "stateMutability": "view",
      "type": "function"
    },
    {
      "inputs": [
        {
          "internalType": "uint256",
          "name": "tokenId",
          "type": "uint256"
        }
      ],
      "name": "tokenURI",
      "outputs": [
        {
          "internalType": "string",
          "name": "",
          "type": "string"
        }
      ],
      "stateMutability": "view",
      "type": "function"
    },
    {
      "inputs": [
        {
          "internalType": "address",
          "name": "from",
          "type": "address"
        },
        {
          "internalType": "address",
          "name": "to",
          "type": "address"
        },
        {
          "internalType": "uint256",
          "name": "tokenId",
          "type": "uint256"
        }
      ],
      "name": "transferFrom",
      "outputs": [],
      "stateMutability": "nonpayable",
      "type": "function"
    },
    {
      "inputs": [
        {
          "internalType": "address",
          "name": "newOwner",
          "type": "address"
        }
      ],
      "name": "transferOwnership",
      "outputs": [],
      "stateMutability": "nonpayable",
      "type": "function"
    },
    {
      "inputs": [],
      "name": "withdraw",
      "outputs": [],
      "stateMutability": "nonpayable",
      "type": "function"
    }
  ],
  "transactionHash": "0x3ca2d69aa85fe394486a4bcf4f5e3b80a6daa6520c0ffddc49054315ea957d88",
  "args": [
    "0x6168499c0cFfCaCD319c818142124B7A15E857ab",
    "7395",
    "0xd89b2bf150e3b9e13446986e571fb9cab24b13cea0a43ea20a6049a85cc807cc",
    "10000000000000000",
    "500000",
    [
      "ipfs://QmTtJcnFaomEYszhNdrxieE32NVxvHUYt3SmVQMZfCyA2F",
      "ipfs://QmRzAEg4fjcpiNusrhzQKjPKxCmcB1v9ff6iez1uZQSquZ",
      "ipfs://QmYuToBC37uf9HRdhJYca78CuLYZQLtbsNPzGVypQurtZk"
    ]
  ],
  "numDeployments": 3,
  "solcInputHash": "ee0be18cf7b92a02c271f5c52d8d5f45",
  "bytecode": "0x6101206040523480156200001257600080fd5b506040516200439a3803806200439a833981810160405281019062000038919062000880565b6040518060400160405280600f81526020017f52616e646f6d2049504653204e465400000000000000000000000000000000008152506040518060400160405280600381526020017f52494e0000000000000000000000000000000000000000000000000000000000815250878073ffffffffffffffffffffffffffffffffffffffff1660808173ffffffffffffffffffffffffffffffffffffffff1660601b81525050508160009080519060200190620000f592919062000313565b5080600190805190602001906200010e92919062000313565b5050506200013162000125620001cb60201b60201c565b620001d360201b60201c565b8573ffffffffffffffffffffffffffffffffffffffff1660a08173ffffffffffffffffffffffffffffffffffffffff1660601b815250508467ffffffffffffffff1660c08167ffffffffffffffff1660c01b815250508360e081815250508163ffffffff166101008163ffffffff1660e01b8152505082600b81905550620001bf816200029960201b60201c565b505050505050620009a0565b600033905090565b6000600760009054906101000a900473ffffffffffffffffffffffffffffffffffffffff16905081600760006101000a81548173ffffffffffffffffffffffffffffffffffffffff021916908373ffffffffffffffffffffffffffffffffffffffff1602179055508173ffffffffffffffffffffffffffffffffffffffff168173ffffffffffffffffffffffffffffffffffffffff167f8be0079c531659141344cd1fd0a4f28419497f9722a3daafe3b4186f6b6457e060405160405180910390a35050565b600c60009054906101000a900460ff1615620002e1576040517fddf8bf7000000000000000000000000000000000000000000000000000000000815260040160405180910390fd5b80600a906003620002f4929190620003a4565b506001600c60006101000a81548160ff02191690831515021790555050565b82805462000321906200096a565b90600052602060002090601f01602090048101928262000345576000855562000391565b82601f106200036057805160ff191683800117855562000391565b8280016001018555821562000391579182015b828111156200039057825182559160200191906001019062000373565b5b509050620003a091906200040b565b5090565b828054828255906000526020600020908101928215620003f8579160200282015b82811115620003f7578251829080519060200190620003e692919062000313565b5091602001919060010190620003c5565b5b5090506200040791906200042a565b5090565b5b80821115620004265760008160009055506001016200040c565b5090565b5b808211156200044e576000818162000444919062000452565b506001016200042b565b5090565b50805462000460906200096a565b6000825580601f1062000474575062000495565b601f0160209004906000526020600020908101906200049491906200040b565b5b50565b6000604051905090565b600080fd5b600080fd5b600073ffffffffffffffffffffffffffffffffffffffff82169050919050565b6000620004d982620004ac565b9050919050565b620004eb81620004cc565b8114620004f757600080fd5b50565b6000815190506200050b81620004e0565b92915050565b600067ffffffffffffffff82169050919050565b620005308162000511565b81146200053c57600080fd5b50565b600081519050620005508162000525565b92915050565b6000819050919050565b6200056b8162000556565b81146200057757600080fd5b50565b6000815190506200058b8162000560565b92915050565b6000819050919050565b620005a68162000591565b8114620005b257600080fd5b50565b600081519050620005c6816200059b565b92915050565b600063ffffffff82169050919050565b620005e781620005cc565b8114620005f357600080fd5b50565b6000815190506200060781620005dc565b92915050565b600080fd5b6000601f19601f8301169050919050565b7f4e487b7100000000000000000000000000000000000000000000000000000000600052604160045260246000fd5b6200065d8262000612565b810181811067ffffffffffffffff821117156200067f576200067e62000623565b5b80604052505050565b60006200069462000498565b9050620006a2828262000652565b919050565b600067ffffffffffffffff821115620006c557620006c462000623565b5b602082029050919050565b600080fd5b600080fd5b600067ffffffffffffffff821115620006f857620006f762000623565b5b620007038262000612565b9050602081019050919050565b60005b838110156200073057808201518184015260208101905062000713565b8381111562000740576000848401525b50505050565b60006200075d6200075784620006da565b62000688565b9050828152602081018484840111156200077c576200077b620006d5565b5b6200078984828562000710565b509392505050565b600082601f830112620007a957620007a86200060d565b5b8151620007bb84826020860162000746565b91505092915050565b6000620007db620007d584620006a7565b62000688565b90508060208402830185811115620007f857620007f7620006d0565b5b835b818110156200084657805167ffffffffffffffff8111156200082157620008206200060d565b5b80860162000830898262000791565b85526020850194505050602081019050620007fa565b5050509392505050565b600082601f8301126200086857620008676200060d565b5b600362000877848285620007c4565b91505092915050565b60008060008060008060c08789031215620008a0576200089f620004a2565b5b6000620008b089828a01620004fa565b9650506020620008c389828a016200053f565b9550506040620008d689828a016200057a565b9450506060620008e989828a01620005b5565b9350506080620008fc89828a01620005f6565b92505060a087015167ffffffffffffffff81111562000920576200091f620004a7565b5b6200092e89828a0162000850565b9150509295509295509295565b7f4e487b7100000000000000000000000000000000000000000000000000000000600052602260045260246000fd5b600060028204905060018216806200098357607f821691505b602082108114156200099a57620009996200093b565b5b50919050565b60805160601c60a05160601c60c05160c01c60e0516101005160e01c6139a2620009f86000396000611069015260006110250152600061104601526000610fe901526000818161096301526109b701526139a26000f3fe60806040526004361061019c5760003560e01c806370a08231116100ec578063a51cccf31161008a578063c87b56dd11610064578063c87b56dd146105bb578063e985e9c5146105f8578063ee89dab414610635578063f2fde38b146106605761019c565b8063a51cccf314610537578063aa15249114610574578063b88d4fde146105925761019c565b80638da5cb5b116100c65780638da5cb5b1461047b57806395d89b41146104a6578063a22cb465146104d1578063a36f573b146104fa5761019c565b806370a08231146103fc578063715018a6146104395780637a5caab3146104505761019c565b806323b872dd1161015957806342842e0e1161013357806342842e0e146103405780635dacf5f4146103695780636352211e146103945780636e02007d146103d15761019c565b806323b872dd146102c35780633af25975146102ec5780633ccfd60b146103295761019c565b806301ffc9a7146101a157806306fdde03146101de578063081812fc14610209578063095ea7b3146102465780630b21a83b1461026f5780631fe543e31461029a575b600080fd5b3480156101ad57600080fd5b506101c860048036038101906101c39190612550565b610689565b6040516101d59190612598565b60405180910390f35b3480156101ea57600080fd5b506101f361076b565b604051610200919061264c565b60405180910390f35b34801561021557600080fd5b50610230600480360381019061022b91906126a4565b6107fd565b60405161023d9190612712565b60405180910390f35b34801561025257600080fd5b5061026d60048036038101906102689190612759565b610843565b005b34801561027b57600080fd5b5061028461095b565b60405161029191906127a8565b60405180910390f35b3480156102a657600080fd5b506102c160048036038101906102bc919061290b565b610961565b005b3480156102cf57600080fd5b506102ea60048036038101906102e59190612967565b610a21565b005b3480156102f857600080fd5b50610313600480360381019061030e91906126a4565b610a81565b604051610320919061264c565b60405180910390f35b34801561033557600080fd5b5061033e610b31565b005b34801561034c57600080fd5b5061036760048036038101906103629190612967565b610be5565b005b34801561037557600080fd5b5061037e610c05565b60405161038b9190612a65565b60405180910390f35b3480156103a057600080fd5b506103bb60048036038101906103b691906126a4565b610c30565b6040516103c89190612712565b60405180910390f35b3480156103dd57600080fd5b506103e6610ce2565b6040516103f391906127a8565b60405180910390f35b34801561040857600080fd5b50610423600480360381019061041e9190612a80565b610cec565b60405161043091906127a8565b60405180910390f35b34801561044557600080fd5b5061044e610da4565b005b34801561045c57600080fd5b50610465610db8565b60405161047291906127a8565b60405180910390f35b34801561048757600080fd5b50610490610dc2565b60405161049d9190612712565b60405180910390f35b3480156104b257600080fd5b506104bb610dec565b6040516104c8919061264c565b60405180910390f35b3480156104dd57600080fd5b506104f860048036038101906104f39190612ad9565b610e7e565b005b34801561050657600080fd5b50610521600480360381019061051c91906126a4565b610e94565b60405161052e9190612712565b60405180910390f35b34801561054357600080fd5b5061055e600480360381019061055991906126a4565b610ec7565b60405161056b9190612b90565b60405180910390f35b61057c610fa9565b60405161058991906127a8565b60405180910390f35b34801561059e57600080fd5b506105b960048036038101906105b49190612c60565b61118b565b005b3480156105c757600080fd5b506105e260048036038101906105dd91906126a4565b6111ed565b6040516105ef919061264c565b60405180910390f35b34801561060457600080fd5b5061061f600480360381019061061a9190612ce3565b611300565b60405161062c9190612598565b60405180910390f35b34801561064157600080fd5b5061064a611394565b6040516106579190612598565b60405180910390f35b34801561066c57600080fd5b5061068760048036038101906106829190612a80565b6113ab565b005b60007f80ac58cd000000000000000000000000000000000000000000000000000000007bffffffffffffffffffffffffffffffffffffffffffffffffffffffff1916827bffffffffffffffffffffffffffffffffffffffffffffffffffffffff1916148061075457507f5b5e139f000000000000000000000000000000000000000000000000000000007bffffffffffffffffffffffffffffffffffffffffffffffffffffffff1916827bffffffffffffffffffffffffffffffffffffffffffffffffffffffff1916145b8061076457506107638261142f565b5b9050919050565b60606000805461077a90612d52565b80601f01602080910402602001604051908101604052809291908181526020018280546107a690612d52565b80156107f35780601f106107c8576101008083540402835291602001916107f3565b820191906000526020600020905b8154815290600101906020018083116107d657829003601f168201915b5050505050905090565b600061080882611499565b6004600083815260200190815260200160002060009054906101000a900473ffffffffffffffffffffffffffffffffffffffff169050919050565b600061084e82610c30565b90508073ffffffffffffffffffffffffffffffffffffffff168373ffffffffffffffffffffffffffffffffffffffff1614156108bf576040517f08c379a00000000000000000000000000000000000000000000000000000000081526004016108b690612df6565b60405180910390fd5b8073ffffffffffffffffffffffffffffffffffffffff166108de6114e4565b73ffffffffffffffffffffffffffffffffffffffff16148061090d575061090c816109076114e4565b611300565b5b61094c576040517f08c379a000000000000000000000000000000000000000000000000000000000815260040161094390612e88565b60405180910390fd5b61095683836114ec565b505050565b60095481565b7f000000000000000000000000000000000000000000000000000000000000000073ffffffffffffffffffffffffffffffffffffffff163373ffffffffffffffffffffffffffffffffffffffff1614610a1357337f00000000000000000000000000000000000000000000000000000000000000006040517f1cf993f4000000000000000000000000000000000000000000000000000000008152600401610a0a929190612ea8565b60405180910390fd5b610a1d82826115a5565b5050565b610a32610a2c6114e4565b8261173f565b610a71576040517f08c379a0000000000000000000000000000000000000000000000000000000008152600401610a6890612f43565b60405180910390fd5b610a7c8383836117d4565b505050565b6060600a8281548110610a9757610a96612f63565b5b906000526020600020018054610aac90612d52565b80601f0160208091040260200160405190810160405280929190818152602001828054610ad890612d52565b8015610b255780601f10610afa57610100808354040283529160200191610b25565b820191906000526020600020905b815481529060010190602001808311610b0857829003601f168201915b50505050509050919050565b610b39611a3b565b600047905060003373ffffffffffffffffffffffffffffffffffffffff1682604051610b6490612fc3565b60006040518083038185875af1925050503d8060008114610ba1576040519150601f19603f3d011682016040523d82523d6000602084013e610ba6565b606091505b5050905080610be1576040517fca7e25b700000000000000000000000000000000000000000000000000000000815260040160405180910390fd5b5050565b610c008383836040518060200160405280600081525061118b565b505050565b610c0d61241f565b6040518060600160405280600a8152602001601e81526020016064815250905090565b6000806002600084815260200190815260200160002060009054906101000a900473ffffffffffffffffffffffffffffffffffffffff169050600073ffffffffffffffffffffffffffffffffffffffff168173ffffffffffffffffffffffffffffffffffffffff161415610cd9576040517f08c379a0000000000000000000000000000000000000000000000000000000008152600401610cd090613024565b60405180910390fd5b80915050919050565b6000600954905090565b60008073ffffffffffffffffffffffffffffffffffffffff168273ffffffffffffffffffffffffffffffffffffffff161415610d5d576040517f08c379a0000000000000000000000000000000000000000000000000000000008152600401610d54906130b6565b60405180910390fd5b600360008373ffffffffffffffffffffffffffffffffffffffff1673ffffffffffffffffffffffffffffffffffffffff168152602001908152602001600020549050919050565b610dac611a3b565b610db66000611ab9565b565b6000600b54905090565b6000600760009054906101000a900473ffffffffffffffffffffffffffffffffffffffff16905090565b606060018054610dfb90612d52565b80601f0160208091040260200160405190810160405280929190818152602001828054610e2790612d52565b8015610e745780601f10610e4957610100808354040283529160200191610e74565b820191906000526020600020905b815481529060010190602001808311610e5757829003601f168201915b5050505050905090565b610e90610e896114e4565b8383611b7f565b5050565b60086020528060005260406000206000915054906101000a900473ffffffffffffffffffffffffffffffffffffffff1681565b600080600090506000610ed8610c05565b905060005b6003811015610f7157828510158015610f175750818160038110610f0457610f03612f63565b5b602002015183610f149190613105565b85105b15610f3957806002811115610f2f57610f2e612b19565b5b9350505050610fa4565b818160038110610f4c57610f4b612f63565b5b602002015183610f5c9190613105565b92508080610f699061315b565b915050610edd565b506040517f86775e0700000000000000000000000000000000000000000000000000000000815260040160405180910390fd5b919050565b6000600b54341015610fe7576040517fb90f491000000000000000000000000000000000000000000000000000000000815260040160405180910390fd5b7f000000000000000000000000000000000000000000000000000000000000000073ffffffffffffffffffffffffffffffffffffffff16635d3b1d307f00000000000000000000000000000000000000000000000000000000000000007f000000000000000000000000000000000000000000000000000000000000000060037f000000000000000000000000000000000000000000000000000000000000000060016040518663ffffffff1660e01b81526004016110aa95949392919061321c565b602060405180830381600087803b1580156110c457600080fd5b505af11580156110d8573d6000803e3d6000fd5b505050506040513d601f19601f820116820180604052508101906110fc9190613284565b9050336008600083815260200190815260200160002060006101000a81548173ffffffffffffffffffffffffffffffffffffffff021916908373ffffffffffffffffffffffffffffffffffffffff160217905550807ff873236e6cc0ecc5be1a9a35c95ee5b8d1ac4cc7bfef0cc5060391d6cc98e26b336040516111809190612712565b60405180910390a290565b61119c6111966114e4565b8361173f565b6111db576040517f08c379a00000000000000000000000000000000000000000000000000000000081526004016111d290612f43565b60405180910390fd5b6111e784848484611cec565b50505050565b60606111f882611499565b600060066000848152602001908152602001600020805461121890612d52565b80601f016020809104026020016040519081016040528092919081815260200182805461124490612d52565b80156112915780601f1061126657610100808354040283529160200191611291565b820191906000526020600020905b81548152906001019060200180831161127457829003601f168201915b5050505050905060006112a2611d48565b90506000815114156112b85781925050506112fb565b6000825111156112ed5780826040516020016112d59291906132ed565b604051602081830303815290604052925050506112fb565b6112f684611d5f565b925050505b919050565b6000600560008473ffffffffffffffffffffffffffffffffffffffff1673ffffffffffffffffffffffffffffffffffffffff16815260200190815260200160002060008373ffffffffffffffffffffffffffffffffffffffff1673ffffffffffffffffffffffffffffffffffffffff16815260200190815260200160002060009054906101000a900460ff16905092915050565b6000600c60009054906101000a900460ff16905090565b6113b3611a3b565b600073ffffffffffffffffffffffffffffffffffffffff168173ffffffffffffffffffffffffffffffffffffffff161415611423576040517f08c379a000000000000000000000000000000000000000000000000000000000815260040161141a90613383565b60405180910390fd5b61142c81611ab9565b50565b60007f01ffc9a7000000000000000000000000000000000000000000000000000000007bffffffffffffffffffffffffffffffffffffffffffffffffffffffff1916827bffffffffffffffffffffffffffffffffffffffffffffffffffffffff1916149050919050565b6114a281611dc7565b6114e1576040517f08c379a00000000000000000000000000000000000000000000000000000000081526004016114d890613024565b60405180910390fd5b50565b600033905090565b816004600083815260200190815260200160002060006101000a81548173ffffffffffffffffffffffffffffffffffffffff021916908373ffffffffffffffffffffffffffffffffffffffff160217905550808273ffffffffffffffffffffffffffffffffffffffff1661155f83610c30565b73ffffffffffffffffffffffffffffffffffffffff167f8c5be1e5ebec7d5bd14f71427d1e84f3dd0314c0f7b2291e5b200ac8c7c3b92560405160405180910390a45050565b60006008600084815260200190815260200160002060009054906101000a900473ffffffffffffffffffffffffffffffffffffffff1690506000600954905060006064846000815181106115fc576115fb612f63565b5b602002602001015161160e91906133d2565b9050600061161b82610ec7565b9050600160095461162c9190613105565b60098190555061163c8484611e33565b6116fe83600a83600281111561165557611654612b19565b5b8154811061166657611665612f63565b5b90600052602060002001805461167b90612d52565b80601f01602080910402602001604051908101604052809291908181526020018280546116a790612d52565b80156116f45780601f106116c9576101008083540402835291602001916116f4565b820191906000526020600020905b8154815290600101906020018083116116d757829003601f168201915b5050505050611e51565b7f8a269f26b688e110e9cbd887d163dab35cae678fa353a0292de532c0cac1ecdc818560405161172f929190613403565b60405180910390a1505050505050565b60008061174b83610c30565b90508073ffffffffffffffffffffffffffffffffffffffff168473ffffffffffffffffffffffffffffffffffffffff16148061178d575061178c8185611300565b5b806117cb57508373ffffffffffffffffffffffffffffffffffffffff166117b3846107fd565b73ffffffffffffffffffffffffffffffffffffffff16145b91505092915050565b8273ffffffffffffffffffffffffffffffffffffffff166117f482610c30565b73ffffffffffffffffffffffffffffffffffffffff161461184a576040517f08c379a00000000000000000000000000000000000000000000000000000000081526004016118419061349e565b60405180910390fd5b600073ffffffffffffffffffffffffffffffffffffffff168273ffffffffffffffffffffffffffffffffffffffff1614156118ba576040517f08c379a00000000000000000000000000000000000000000000000000000000081526004016118b190613530565b60405180910390fd5b6118c5838383611ec5565b6118d06000826114ec565b6001600360008573ffffffffffffffffffffffffffffffffffffffff1673ffffffffffffffffffffffffffffffffffffffff16815260200190815260200160002060008282546119209190613550565b925050819055506001600360008473ffffffffffffffffffffffffffffffffffffffff1673ffffffffffffffffffffffffffffffffffffffff16815260200190815260200160002060008282546119779190613105565b92505081905550816002600083815260200190815260200160002060006101000a81548173ffffffffffffffffffffffffffffffffffffffff021916908373ffffffffffffffffffffffffffffffffffffffff160217905550808273ffffffffffffffffffffffffffffffffffffffff168473ffffffffffffffffffffffffffffffffffffffff167fddf252ad1be2c89b69c2b068fc378daa952ba7f163c4a11628f55a4df523b3ef60405160405180910390a4611a36838383611eca565b505050565b611a436114e4565b73ffffffffffffffffffffffffffffffffffffffff16611a61610dc2565b73ffffffffffffffffffffffffffffffffffffffff1614611ab7576040517f08c379a0000000000000000000000000000000000000000000000000000000008152600401611aae906135d0565b60405180910390fd5b565b6000600760009054906101000a900473ffffffffffffffffffffffffffffffffffffffff16905081600760006101000a81548173ffffffffffffffffffffffffffffffffffffffff021916908373ffffffffffffffffffffffffffffffffffffffff1602179055508173ffffffffffffffffffffffffffffffffffffffff168173ffffffffffffffffffffffffffffffffffffffff167f8be0079c531659141344cd1fd0a4f28419497f9722a3daafe3b4186f6b6457e060405160405180910390a35050565b8173ffffffffffffffffffffffffffffffffffffffff168373ffffffffffffffffffffffffffffffffffffffff161415611bee576040517f08c379a0000000000000000000000000000000000000000000000000000000008152600401611be59061363c565b60405180910390fd5b80600560008573ffffffffffffffffffffffffffffffffffffffff1673ffffffffffffffffffffffffffffffffffffffff16815260200190815260200160002060008473ffffffffffffffffffffffffffffffffffffffff1673ffffffffffffffffffffffffffffffffffffffff16815260200190815260200160002060006101000a81548160ff0219169083151502179055508173ffffffffffffffffffffffffffffffffffffffff168373ffffffffffffffffffffffffffffffffffffffff167f17307eab39ab6107e8899845ad3d59bd9653f200f220920489ca2b5937696c3183604051611cdf9190612598565b60405180910390a3505050565b611cf78484846117d4565b611d0384848484611ecf565b611d42576040517f08c379a0000000000000000000000000000000000000000000000000000000008152600401611d39906136ce565b60405180910390fd5b50505050565b606060405180602001604052806000815250905090565b6060611d6a82611499565b6000611d74611d48565b90506000815111611d945760405180602001604052806000815250611dbf565b80611d9e84612066565b604051602001611daf9291906132ed565b6040516020818303038152906040525b915050919050565b60008073ffffffffffffffffffffffffffffffffffffffff166002600084815260200190815260200160002060009054906101000a900473ffffffffffffffffffffffffffffffffffffffff1673ffffffffffffffffffffffffffffffffffffffff1614159050919050565b611e4d8282604051806020016040528060008152506121c7565b5050565b611e5a82611dc7565b611e99576040517f08c379a0000000000000000000000000000000000000000000000000000000008152600401611e9090613760565b60405180910390fd5b80600660008481526020019081526020016000209080519060200190611ec0929190612441565b505050565b505050565b505050565b6000611ef08473ffffffffffffffffffffffffffffffffffffffff16612222565b15612059578373ffffffffffffffffffffffffffffffffffffffff1663150b7a02611f196114e4565b8786866040518563ffffffff1660e01b8152600401611f3b94939291906137d5565b602060405180830381600087803b158015611f5557600080fd5b505af1925050508015611f8657506040513d601f19601f82011682018060405250810190611f839190613836565b60015b612009573d8060008114611fb6576040519150601f19603f3d011682016040523d82523d6000602084013e611fbb565b606091505b50600081511415612001576040517f08c379a0000000000000000000000000000000000000000000000000000000008152600401611ff8906136ce565b60405180910390fd5b805181602001fd5b63150b7a0260e01b7bffffffffffffffffffffffffffffffffffffffffffffffffffffffff1916817bffffffffffffffffffffffffffffffffffffffffffffffffffffffff19161491505061205e565b600190505b949350505050565b606060008214156120ae576040518060400160405280600181526020017f300000000000000000000000000000000000000000000000000000000000000081525090506121c2565b600082905060005b600082146120e05780806120c99061315b565b915050600a826120d99190613863565b91506120b6565b60008167ffffffffffffffff8111156120fc576120fb6127c8565b5b6040519080825280601f01601f19166020018201604052801561212e5781602001600182028036833780820191505090505b5090505b600085146121bb576001826121479190613550565b9150600a8561215691906133d2565b60306121629190613105565b60f81b81838151811061217857612177612f63565b5b60200101907effffffffffffffffffffffffffffffffffffffffffffffffffffffffffffff1916908160001a905350600a856121b49190613863565b9450612132565b8093505050505b919050565b6121d18383612245565b6121de6000848484611ecf565b61221d576040517f08c379a0000000000000000000000000000000000000000000000000000000008152600401612214906136ce565b60405180910390fd5b505050565b6000808273ffffffffffffffffffffffffffffffffffffffff163b119050919050565b600073ffffffffffffffffffffffffffffffffffffffff168273ffffffffffffffffffffffffffffffffffffffff1614156122b5576040517f08c379a00000000000000000000000000000000000000000000000000000000081526004016122ac906138e0565b60405180910390fd5b6122be81611dc7565b156122fe576040517f08c379a00000000000000000000000000000000000000000000000000000000081526004016122f59061394c565b60405180910390fd5b61230a60008383611ec5565b6001600360008473ffffffffffffffffffffffffffffffffffffffff1673ffffffffffffffffffffffffffffffffffffffff168152602001908152602001600020600082825461235a9190613105565b92505081905550816002600083815260200190815260200160002060006101000a81548173ffffffffffffffffffffffffffffffffffffffff021916908373ffffffffffffffffffffffffffffffffffffffff160217905550808273ffffffffffffffffffffffffffffffffffffffff16600073ffffffffffffffffffffffffffffffffffffffff167fddf252ad1be2c89b69c2b068fc378daa952ba7f163c4a11628f55a4df523b3ef60405160405180910390a461241b60008383611eca565b5050565b6040518060600160405280600390602082028036833780820191505090505090565b82805461244d90612d52565b90600052602060002090601f01602090048101928261246f57600085556124b6565b82601f1061248857805160ff19168380011785556124b6565b828001600101855582156124b6579182015b828111156124b557825182559160200191906001019061249a565b5b5090506124c391906124c7565b5090565b5b808211156124e05760008160009055506001016124c8565b5090565b6000604051905090565b600080fd5b600080fd5b60007fffffffff0000000000000000000000000000000000000000000000000000000082169050919050565b61252d816124f8565b811461253857600080fd5b50565b60008135905061254a81612524565b92915050565b600060208284031215612566576125656124ee565b5b60006125748482850161253b565b91505092915050565b60008115159050919050565b6125928161257d565b82525050565b60006020820190506125ad6000830184612589565b92915050565b600081519050919050565b600082825260208201905092915050565b60005b838110156125ed5780820151818401526020810190506125d2565b838111156125fc576000848401525b50505050565b6000601f19601f8301169050919050565b600061261e826125b3565b61262881856125be565b93506126388185602086016125cf565b61264181612602565b840191505092915050565b600060208201905081810360008301526126668184612613565b905092915050565b6000819050919050565b6126818161266e565b811461268c57600080fd5b50565b60008135905061269e81612678565b92915050565b6000602082840312156126ba576126b96124ee565b5b60006126c88482850161268f565b91505092915050565b600073ffffffffffffffffffffffffffffffffffffffff82169050919050565b60006126fc826126d1565b9050919050565b61270c816126f1565b82525050565b60006020820190506127276000830184612703565b92915050565b612736816126f1565b811461274157600080fd5b50565b6000813590506127538161272d565b92915050565b600080604083850312156127705761276f6124ee565b5b600061277e85828601612744565b925050602061278f8582860161268f565b9150509250929050565b6127a28161266e565b82525050565b60006020820190506127bd6000830184612799565b92915050565b600080fd5b7f4e487b7100000000000000000000000000000000000000000000000000000000600052604160045260246000fd5b61280082612602565b810181811067ffffffffffffffff8211171561281f5761281e6127c8565b5b80604052505050565b60006128326124e4565b905061283e82826127f7565b919050565b600067ffffffffffffffff82111561285e5761285d6127c8565b5b602082029050602081019050919050565b600080fd5b600061288761288284612843565b612828565b905080838252602082019050602084028301858111156128aa576128a961286f565b5b835b818110156128d357806128bf888261268f565b8452602084019350506020810190506128ac565b5050509392505050565b600082601f8301126128f2576128f16127c3565b5b8135612902848260208601612874565b91505092915050565b60008060408385031215612922576129216124ee565b5b60006129308582860161268f565b925050602083013567ffffffffffffffff811115612951576129506124f3565b5b61295d858286016128dd565b9150509250929050565b6000806000606084860312156129805761297f6124ee565b5b600061298e86828701612744565b935050602061299f86828701612744565b92505060406129b08682870161268f565b9150509250925092565b600060039050919050565b600081905092915050565b6000819050919050565b6129e38161266e565b82525050565b60006129f583836129da565b60208301905092915050565b6000602082019050919050565b612a17816129ba565b612a2181846129c5565b9250612a2c826129d0565b8060005b83811015612a5d578151612a4487826129e9565b9650612a4f83612a01565b925050600181019050612a30565b505050505050565b6000606082019050612a7a6000830184612a0e565b92915050565b600060208284031215612a9657612a956124ee565b5b6000612aa484828501612744565b91505092915050565b612ab68161257d565b8114612ac157600080fd5b50565b600081359050612ad381612aad565b92915050565b60008060408385031215612af057612aef6124ee565b5b6000612afe85828601612744565b9250506020612b0f85828601612ac4565b9150509250929050565b7f4e487b7100000000000000000000000000000000000000000000000000000000600052602160045260246000fd5b60038110612b5957612b58612b19565b5b50565b6000819050612b6a82612b48565b919050565b6000612b7a82612b5c565b9050919050565b612b8a81612b6f565b82525050565b6000602082019050612ba56000830184612b81565b92915050565b600080fd5b600067ffffffffffffffff821115612bcb57612bca6127c8565b5b612bd482612602565b9050602081019050919050565b82818337600083830152505050565b6000612c03612bfe84612bb0565b612828565b905082815260208101848484011115612c1f57612c1e612bab565b5b612c2a848285612be1565b509392505050565b600082601f830112612c4757612c466127c3565b5b8135612c57848260208601612bf0565b91505092915050565b60008060008060808587031215612c7a57612c796124ee565b5b6000612c8887828801612744565b9450506020612c9987828801612744565b9350506040612caa8782880161268f565b925050606085013567ffffffffffffffff811115612ccb57612cca6124f3565b5b612cd787828801612c32565b91505092959194509250565b60008060408385031215612cfa57612cf96124ee565b5b6000612d0885828601612744565b9250506020612d1985828601612744565b9150509250929050565b7f4e487b7100000000000000000000000000000000000000000000000000000000600052602260045260246000fd5b60006002820490506001821680612d6a57607f821691505b60208210811415612d7e57612d7d612d23565b5b50919050565b7f4552433732313a20617070726f76616c20746f2063757272656e74206f776e6560008201527f7200000000000000000000000000000000000000000000000000000000000000602082015250565b6000612de06021836125be565b9150612deb82612d84565b604082019050919050565b60006020820190508181036000830152612e0f81612dd3565b9050919050565b7f4552433732313a20617070726f76652063616c6c6572206973206e6f7420746f60008201527f6b656e206f776e6572206e6f7220617070726f76656420666f7220616c6c0000602082015250565b6000612e72603e836125be565b9150612e7d82612e16565b604082019050919050565b60006020820190508181036000830152612ea181612e65565b9050919050565b6000604082019050612ebd6000830185612703565b612eca6020830184612703565b9392505050565b7f4552433732313a2063616c6c6572206973206e6f7420746f6b656e206f776e6560008201527f72206e6f7220617070726f766564000000000000000000000000000000000000602082015250565b6000612f2d602e836125be565b9150612f3882612ed1565b604082019050919050565b60006020820190508181036000830152612f5c81612f20565b9050919050565b7f4e487b7100000000000000000000000000000000000000000000000000000000600052603260045260246000fd5b600081905092915050565b50565b6000612fad600083612f92565b9150612fb882612f9d565b600082019050919050565b6000612fce82612fa0565b9150819050919050565b7f4552433732313a20696e76616c696420746f6b656e2049440000000000000000600082015250565b600061300e6018836125be565b915061301982612fd8565b602082019050919050565b6000602082019050818103600083015261303d81613001565b9050919050565b7f4552433732313a2061646472657373207a65726f206973206e6f74206120766160008201527f6c6964206f776e65720000000000000000000000000000000000000000000000602082015250565b60006130a06029836125be565b91506130ab82613044565b604082019050919050565b600060208201905081810360008301526130cf81613093565b9050919050565b7f4e487b7100000000000000000000000000000000000000000000000000000000600052601160045260246000fd5b60006131108261266e565b915061311b8361266e565b9250827fffffffffffffffffffffffffffffffffffffffffffffffffffffffffffffffff038211156131505761314f6130d6565b5b828201905092915050565b60006131668261266e565b91507fffffffffffffffffffffffffffffffffffffffffffffffffffffffffffffffff821415613199576131986130d6565b5b600182019050919050565b6000819050919050565b6131b7816131a4565b82525050565b600067ffffffffffffffff82169050919050565b6131da816131bd565b82525050565b600061ffff82169050919050565b6131f7816131e0565b82525050565b600063ffffffff82169050919050565b613216816131fd565b82525050565b600060a08201905061323160008301886131ae565b61323e60208301876131d1565b61324b60408301866131ee565b613258606083018561320d565b613265608083018461320d565b9695505050505050565b60008151905061327e81612678565b92915050565b60006020828403121561329a576132996124ee565b5b60006132a88482850161326f565b91505092915050565b600081905092915050565b60006132c7826125b3565b6132d181856132b1565b93506132e18185602086016125cf565b80840191505092915050565b60006132f982856132bc565b915061330582846132bc565b91508190509392505050565b7f4f776e61626c653a206e6577206f776e657220697320746865207a65726f206160008201527f6464726573730000000000000000000000000000000000000000000000000000602082015250565b600061336d6026836125be565b915061337882613311565b604082019050919050565b6000602082019050818103600083015261339c81613360565b9050919050565b7f4e487b7100000000000000000000000000000000000000000000000000000000600052601260045260246000fd5b60006133dd8261266e565b91506133e88361266e565b9250826133f8576133f76133a3565b5b828206905092915050565b60006040820190506134186000830185612b81565b6134256020830184612703565b9392505050565b7f4552433732313a207472616e736665722066726f6d20696e636f72726563742060008201527f6f776e6572000000000000000000000000000000000000000000000000000000602082015250565b60006134886025836125be565b91506134938261342c565b604082019050919050565b600060208201905081810360008301526134b78161347b565b9050919050565b7f4552433732313a207472616e7366657220746f20746865207a65726f2061646460008201527f7265737300000000000000000000000000000000000000000000000000000000602082015250565b600061351a6024836125be565b9150613525826134be565b604082019050919050565b600060208201905081810360008301526135498161350d565b9050919050565b600061355b8261266e565b91506135668361266e565b925082821015613579576135786130d6565b5b828203905092915050565b7f4f776e61626c653a2063616c6c6572206973206e6f7420746865206f776e6572600082015250565b60006135ba6020836125be565b91506135c582613584565b602082019050919050565b600060208201905081810360008301526135e9816135ad565b9050919050565b7f4552433732313a20617070726f766520746f2063616c6c657200000000000000600082015250565b60006136266019836125be565b9150613631826135f0565b602082019050919050565b6000602082019050818103600083015261365581613619565b9050919050565b7f4552433732313a207472616e7366657220746f206e6f6e20455243373231526560008201527f63656976657220696d706c656d656e7465720000000000000000000000000000602082015250565b60006136b86032836125be565b91506136c38261365c565b604082019050919050565b600060208201905081810360008301526136e7816136ab565b9050919050565b7f45524337323155524953746f726167653a2055524920736574206f66206e6f6e60008201527f6578697374656e7420746f6b656e000000000000000000000000000000000000602082015250565b600061374a602e836125be565b9150613755826136ee565b604082019050919050565b600060208201905081810360008301526137798161373d565b9050919050565b600081519050919050565b600082825260208201905092915050565b60006137a782613780565b6137b1818561378b565b93506137c18185602086016125cf565b6137ca81612602565b840191505092915050565b60006080820190506137ea6000830187612703565b6137f76020830186612703565b6138046040830185612799565b8181036060830152613816818461379c565b905095945050505050565b60008151905061383081612524565b92915050565b60006020828403121561384c5761384b6124ee565b5b600061385a84828501613821565b91505092915050565b600061386e8261266e565b91506138798361266e565b925082613889576138886133a3565b5b828204905092915050565b7f4552433732313a206d696e7420746f20746865207a65726f2061646472657373600082015250565b60006138ca6020836125be565b91506138d582613894565b602082019050919050565b600060208201905081810360008301526138f9816138bd565b9050919050565b7f4552433732313a20746f6b656e20616c7265616479206d696e74656400000000600082015250565b6000613936601c836125be565b915061394182613900565b602082019050919050565b6000602082019050818103600083015261396581613929565b905091905056fea264697066735822122041291c88343ebebcca7dd6a75a7cd1708110faecb2f94d2e609abe5a2c319b8764736f6c63430008080033",
  "devdoc": {
    "kind": "dev",
    "methods": {
      "approve(address,uint256)": {
        "details": "See {IERC721-approve}."
      },
      "balanceOf(address)": {
        "details": "See {IERC721-balanceOf}."
      },
      "getApproved(uint256)": {
        "details": "See {IERC721-getApproved}."
      },
      "isApprovedForAll(address,address)": {
        "details": "See {IERC721-isApprovedForAll}."
      },
      "name()": {
        "details": "See {IERC721Metadata-name}."
      },
      "owner()": {
        "details": "Returns the address of the current owner."
      },
      "ownerOf(uint256)": {
        "details": "See {IERC721-ownerOf}."
      },
      "renounceOwnership()": {
        "details": "Leaves the contract without owner. It will not be possible to call `onlyOwner` functions anymore. Can only be called by the current owner. NOTE: Renouncing ownership will leave the contract without an owner, thereby removing any functionality that is only available to the owner."
      },
      "safeTransferFrom(address,address,uint256)": {
        "details": "See {IERC721-safeTransferFrom}."
      },
      "safeTransferFrom(address,address,uint256,bytes)": {
        "details": "See {IERC721-safeTransferFrom}."
      },
      "setApprovalForAll(address,bool)": {
        "details": "See {IERC721-setApprovalForAll}."
      },
      "supportsInterface(bytes4)": {
        "details": "See {IERC165-supportsInterface}."
      },
      "symbol()": {
        "details": "See {IERC721Metadata-symbol}."
      },
      "tokenURI(uint256)": {
        "details": "See {IERC721Metadata-tokenURI}."
      },
      "transferFrom(address,address,uint256)": {
        "details": "See {IERC721-transferFrom}."
      },
      "transferOwnership(address)": {
        "details": "Transfers ownership of the contract to a new account (`newOwner`). Can only be called by the current owner."
      }
    },
    "version": 1
  },
  "userdoc": {
    "kind": "user",
    "methods": {},
    "version": 1
  },
  "storageLayout": {
    "storage": [
      {
        "astId": 285,
        "contract": "contracts/RandomIpfsNft.sol:RandomIpfsNft",
        "label": "_name",
        "offset": 0,
        "slot": "0",
        "type": "t_string_storage"
      },
      {
        "astId": 287,
        "contract": "contracts/RandomIpfsNft.sol:RandomIpfsNft",
        "label": "_symbol",
        "offset": 0,
        "slot": "1",
        "type": "t_string_storage"
      },
      {
        "astId": 291,
        "contract": "contracts/RandomIpfsNft.sol:RandomIpfsNft",
        "label": "_owners",
        "offset": 0,
        "slot": "2",
        "type": "t_mapping(t_uint256,t_address)"
      },
      {
        "astId": 295,
        "contract": "contracts/RandomIpfsNft.sol:RandomIpfsNft",
        "label": "_balances",
        "offset": 0,
        "slot": "3",
        "type": "t_mapping(t_address,t_uint256)"
      },
      {
        "astId": 299,
        "contract": "contracts/RandomIpfsNft.sol:RandomIpfsNft",
        "label": "_tokenApprovals",
        "offset": 0,
        "slot": "4",
        "type": "t_mapping(t_uint256,t_address)"
      },
      {
        "astId": 305,
        "contract": "contracts/RandomIpfsNft.sol:RandomIpfsNft",
        "label": "_operatorApprovals",
        "offset": 0,
        "slot": "5",
        "type": "t_mapping(t_address,t_mapping(t_address,t_bool))"
      },
      {
        "astId": 1273,
        "contract": "contracts/RandomIpfsNft.sol:RandomIpfsNft",
        "label": "_tokenURIs",
        "offset": 0,
        "slot": "6",
        "type": "t_mapping(t_uint256,t_string_storage)"
      },
      {
        "astId": 154,
        "contract": "contracts/RandomIpfsNft.sol:RandomIpfsNft",
        "label": "_owner",
        "offset": 0,
        "slot": "7",
        "type": "t_address"
      },
      {
        "astId": 2034,
        "contract": "contracts/RandomIpfsNft.sol:RandomIpfsNft",
        "label": "s_requestIdToSender",
        "offset": 0,
        "slot": "8",
        "type": "t_mapping(t_uint256,t_address)"
      },
      {
        "astId": 2036,
        "contract": "contracts/RandomIpfsNft.sol:RandomIpfsNft",
        "label": "s_tokenCounter",
        "offset": 0,
        "slot": "9",
        "type": "t_uint256"
      },
      {
        "astId": 2042,
        "contract": "contracts/RandomIpfsNft.sol:RandomIpfsNft",
        "label": "s_dogTokenUris",
        "offset": 0,
        "slot": "10",
        "type": "t_array(t_string_storage)dyn_storage"
      },
      {
        "astId": 2044,
        "contract": "contracts/RandomIpfsNft.sol:RandomIpfsNft",
        "label": "i_mintFee",
        "offset": 0,
        "slot": "11",
        "type": "t_uint256"
      },
      {
        "astId": 2046,
        "contract": "contracts/RandomIpfsNft.sol:RandomIpfsNft",
        "label": "s_initialized",
        "offset": 0,
        "slot": "12",
        "type": "t_bool"
      }
    ],
    "types": {
      "t_address": {
        "encoding": "inplace",
        "label": "address",
        "numberOfBytes": "20"
      },
      "t_array(t_string_storage)dyn_storage": {
        "base": "t_string_storage",
        "encoding": "dynamic_array",
        "label": "string[]",
        "numberOfBytes": "32"
      },
      "t_bool": {
        "encoding": "inplace",
        "label": "bool",
        "numberOfBytes": "1"
      },
      "t_mapping(t_address,t_bool)": {
        "encoding": "mapping",
        "key": "t_address",
        "label": "mapping(address => bool)",
        "numberOfBytes": "32",
        "value": "t_bool"
      },
      "t_mapping(t_address,t_mapping(t_address,t_bool))": {
        "encoding": "mapping",
        "key": "t_address",
        "label": "mapping(address => mapping(address => bool))",
        "numberOfBytes": "32",
        "value": "t_mapping(t_address,t_bool)"
      },
      "t_mapping(t_address,t_uint256)": {
        "encoding": "mapping",
        "key": "t_address",
        "label": "mapping(address => uint256)",
        "numberOfBytes": "32",
        "value": "t_uint256"
      },
      "t_mapping(t_uint256,t_address)": {
        "encoding": "mapping",
        "key": "t_uint256",
        "label": "mapping(uint256 => address)",
        "numberOfBytes": "32",
        "value": "t_address"
      },
      "t_mapping(t_uint256,t_string_storage)": {
        "encoding": "mapping",
        "key": "t_uint256",
        "label": "mapping(uint256 => string)",
        "numberOfBytes": "32",
        "value": "t_string_storage"
      },
      "t_string_storage": {
        "encoding": "bytes",
        "label": "string",
        "numberOfBytes": "32"
      },
      "t_uint256": {
        "encoding": "inplace",
        "label": "uint256",
        "numberOfBytes": "32"
      }
    }
  }
}